:020000040800F2
:10000000B05E0020390500083D0500083F050008E6
:1000100041050008430500084505000800000000F0
:10002000000000000000000000000000470500087C
:1000300049050008000000004B0500084D050008B8
:100040004F0500084F0500084F0500084F05000840
:100050004F0500084F0500084F0500084F05000830
:100060004F0500084F0500084F0500084F05000820
:100070004F0500084F0500084F0500084F05000810
:100080004F0500084F0500084F0500084F05000800
:100090004F0500084F0500084F0500084F050008F0
:1000A0004F0500084F0500084F0500084F050008E0
:1000B0004F0500084F0500084F0500084F050008D0
:1000C0004F0500084F0500084F0500084F050008C0
:1000D0004F0500084F0500084F0500084F050008B0
:1000E0004F0500084F0500084F0500084F050008A0
:1000F0004F0500084F0500084F0500084F05000890
:100100004F0500084F0500084F0500084F0500087F
:100110004F0500084F0500084F0500084F0500086F
:100120004F0500084F0500084F0500084F0500085F
:100130004F0500087F0700084F0500084F0500081D
:100140004F0500084F0500084F0500084F0500083F
:10015000DFF80CD000F0D8FF00480047BF030008CC
:10016000B05E002010B500F0D5FBC04A906940F2A7
:10017000792108439061BE48016821F0F0010160D7
:10018000016841F040010160BA49486820F47020DC
:100190004860486840F480204860B748036823F40A
:1001A0007F230360036843F44C330360031D1C6822
:1001B00024F470041C601C6844F440141C60AF4BB1
:1001C0001C6824F070641C601C6844F040741C605F
:1001D000AB4B5C6844F008045C60036823F07F6309
:1001E0000360036843F096630360D06940F4003015
:1001F000D061A44A40F235101080A24A00200C328F
:100200001080121F10809F4B42F20C021B1D1A809F
:100210000A6822F470220A609B4908609A494FF4E8
:10022000A0402039086098490E20083108608815E0
:100230009549283908609448944924380160016838
:1002400041F00801016001680907FCD4016841F030
:100250000401016001684907FCD4016841F4A00170
:10026000016010BD874A121F111F0A2804D10B8894
:100270001B06FCD50D2313800B881B06FCD5C1B2D1
:10028000118070470021C20701D04FF480417B4AA2
:100290000C321160121D81F480411160002182072F
:1002A00001D54FF40051420701D541F00801000784
:1002B00001D541F0100170481030016042F2180081
:1002C00041406D48143001607047002120B96E48EC
:1002D00020300068C0F30B0188B2704764490020E9
:1002E000091D0968890500D40120624989688904CB
:1002F00000D40220C0B270472DE9F041644C804622
:100300000E466078012520B102280FD0032829D19C
:100310002AE00020A06020616570C02000F057FD39
:10032000BDE8F0415BA1C02000F03DBD206901287F
:1003300018D0207802F040FAB0B1304602F0F0FA5E
:1003400007463246414600F095FD32463946207850
:1003500002F012FFC02000F03AFD52A1C02000F0D0
:1003600022FD2561BDE8F08120690128FAD02078BE
:1003700002F042FA04206070F4E71CB544480129F9
:1003800004D0042905D0052917D105E002214170C8
:1003900013E00021016110E0117800206A46115439
:1003A000491C401CC0B2C9B20828F8D9D82000F0B6
:1003B0000EFD6946D82000F0F6FC00201CBD00F0C0
:1003C00028F8AFF2490378220021022002F0D2FA85
:1003D0002F4C4FF0E02540F2E47720700020607051
:1003E00001262869C00302D503F066F8E66002F032
:1003F00067F8FFF773FF0228F3D1254900233A4637
:10040000891C207802F03AFA04212AA0FFF774FF31
:10041000E7E708B5FFF7A6FE00F084FB0F2000F029
:1004200080FC0F2000F07AFC4FF6FF7000F073FCA8
:1004300022A1002000F0B7FC25A1182000F0B3FC99
:100440002848009023235F220A21052000F0C1FCE8
:1004500001F060FE24480A210068B0FBF1F14FF082
:10046000E020491E41610521016108BD00100240E4
:10047000040C014000100140001401400418014028
:1004800000000140084400402C24014003000E00FD
:1004900000000020436F6E6E656374696E672E2ED8
:1004A0002E0000004D6573736167652053656E749F
:1004B0000000000053414E47000000002020202093
:1004C0002020205642454220436F2E2C4C7464005D
:1004D00020202020202020205443502F49502054F9
:1004E00065737400983700082C000020FEE710B5F3
:1004F00001F0EEFB01F000FF01F026FD03F00CF827
:1005000002F05CFA02F042F8BDE8104001F026BAB1
:1005100010B501F0F7FB01F0F5FE01F083FDBDE839
:10052000104002F0A3BA00207047704770470020C7
:10053000704700207047000005480047FEE7FEE7CF
:10054000FEE7FEE7FEE7FEE7FEE7FEE7FEE7FEE783
:10055000510100082DE9F047CD48816941F03D0186
:100560008161416941F4E0314161CA494A6842F41C
:1005700000124A60C8490A686FF30F020A600A68ED
:1005800044F644331A430A60091D0A6822F00F0238
:100590000A600A6842F00B020A60C0490A68C04B50
:1005A0001A400A600A68BF4B1A430A60BE490A68CB
:1005B0004FF6F07822EA08020A600A6844F6B0337F
:1005C0001A430A60B9490A686FF313020A600A689D
:1005D000B74B1A430A60816A41F480418162816AA3
:1005E00021F480418162B34D286840F00100286009
:1005F0002868C007FCD1B04C8146C4F810904FF475
:100600000041484600F033F900274FF480360020BF
:1006100000F01BF910F4084F02D07F1CB742F6D34C
:10062000022000F012F90746032000F00EF900EA5C
:100630000800A24940EA0740884216D1A0A14820FC
:1006400000F0B1FB4FF44051002000F010F90027FA
:10065000012000F0FAF8800604D59EA1602000F089
:10066000A2FB02E07F1CB742F2D30027B046102065
:1006700000F0EBF80646C00704D09BA1782000F0FC
:1006800092FB02E07F1C4745F1D34FF400502060FD
:10069000700703D5206840F400602060B00703D4E1
:1006A000206840F4804020604FF4826060608020C9
:1006B000A0619048818821640178D0F8010041EA66
:1006C0000020606400F09EF88B498D4A002081F87C
:1006D0000090DFF828C2014602F5C156491C0229E4
:1006E00000D1002102EB0013C3F800C000EB40076B
:1006F00006EB47279F6002EB0117401CDF600228D2
:10070000ECD32A617F48A861206840F00C0020608B
:100710004FF0FF3068617C48E861BDE8F0877B49B5
:100720004FF000500860704779494FF00050086062
:100730007047F0B5704E724A317802EB01131A68B7
:10074000002AFCDB9C68021D24F003050488E41CDD
:10075000A40803D080CA641E80C5FBD100885860FD
:10076000186840F000401860491C022900D100219F
:10077000504831700221416100214160F0BD2DE9F6
:10078000F047DFF87C815C4FA8F14008494E35E026
:100790007061400632D57C7808EB0415286849F270
:1007A0001A01084222D12868C0F3012003281DD174
:1007B000286840F2EA51C0F30D40A0F104098945D0
:1007C00014D849F0004000F079FE78B1A96809F129
:1007D000030221F00303011D920805D053F804CB56
:1007E00041F804CB521EF9D101F0A0FF4FF00040B8
:1007F0002860641C042C00D100247C707069C10343
:10080000C6D48AE7F0B500203B493D4B4FF0004588
:100810004870403B01464FF48C4603F16004491C8C
:10082000042900D1002103EB0012156000EB400702
:1008300004EB4727C2E9016703EB0117401CD760AF
:100840000428ECD31B48C360F0BD40F6010141EA27
:1008500080111948016100214FF4A0220369DB07D0
:1008600002D0491C9142F9D3406980B27047124AC4
:10087000516140F6030141EA8010106100204FF4FD
:10088000A0211369DB0702D0401C8842F9D37047CE
:10089000001002400000014000080140040C01402B
:1008A000F00000FF0BB4BB00001001400414014035
:1008B000444404000090024000800240905C00200C
:1008C0004450383338343843204465746563746564
:1008D0006400000052756E204175746F6E65676F1D
:1008E00074696174696F6E004C696E6B2069732066
:1008F0006F6E0000240000202A000020000010304D
:10090000B0370020022010004100010004E100E0A7
:1009100084E100E070B5444912200860444843492E
:1009200041604449C1624449016001688903FCD5C2
:10093000016841F08051016001688900FCD50168BF
:1009400041F08061016001680901FCD5016841F056
:100950008071016001688901FCD54168C1F38101A2
:100960000229FAD14468C16A344D14F0030205D05B
:100970003348012A30D0022A2FD101E031482BE040
:10098000220CD2071FD00A0CD2070CD0C1F30312DD
:10099000521CB0FBF2F0C1F303220B2A01D2921CCD
:1009A00000E0121D504311F00E0F05D001F00F01B1
:1009B000491CB0FBF1F007E0610CC90704D000EB63
:1009C000D070401000E02048C4F383410D2918D0B6
:1009D00001F1020100FB01F068602006686805D59E
:1009E000C4F3021101F1010120FA01F02860A860AE
:1009F00061050FD5C4F30121491C20FA01F1E9601A
:100A000009E000F0B9FA0022104B00F045FA00F0BE
:100A1000C4FAE1E7E860A10403D5C4F3C121491C8D
:100A2000C840286170BD00000020024002841D0BF8
:100A30000010024044860100820001002C000020CA
:100A400040787D0100127A0000093D0000001A4044
:100A500030B5F2494FF400520A60F14B40225A611E
:100A600054020C6014020D1D2C60EE4D28600C60C9
:100A70001A6130BDE94930B5091D4FF400520A60D2
:100A8000E74B40225A6155020C1F256015020D608C
:100A9000E449086025601A6130BD70B5E1494FF046
:100AA0004430083908600A1F1060DC484B140360AA
:100AB0005B000360DA4C402363615D02061D356014
:100AC0000560081D0068236180B24FF033330B606E
:100AD000136070BD2DE9F04104460D4616461F46D1
:100AE0002A20FFF7C7FF200AFFF7B2FFE0B2FFF7A7
:100AF000AFFF280AFFF7ACFFE8B2FFF7A9FF2B20F2
:100B0000FFF7B8FF300AFFF7A3FFF0B2FFF7A0FF2F
:100B1000380AFFF79DFFF8B2FFF79AFFBDE8F041F2
:100B20002C20A7E7F8B5C048816941F07D018161BB
:100B3000BC494FF033300C390860091D0860B848D3
:100B4000016821F070610160016841F0407101604D
:100B5000B2490C390A68C2F313020A600A68B34B3F
:100B60001A430A6040210161AC494FF460400860BB
:100B70000A2000F047F9D320FFF77CFFFFF78DFF35
:100B80000446FFF78AFF0546FFF787FF0646FFF793
:100B900084FF009033462A462146A5A000F006FBBC
:100BA0001120FFF767FF142000F02CF9D020FFF789
:100BB00061FF0720FFF74CFF4120FFF749FF1F208F
:100BC000FFF746FFD120FFF755FF0020FFF740FF5A
:100BD0002C20FFF73DFF1A20FFF73AFFD220FFF746
:100BE00049FF0120FFF734FF1120FFF731FFC0203C
:100BF000FFF740FF0020FFF72BFF3B20FFF728FF08
:100C00000020FFF725FF0220FFF722FF1120FFF74A
:100C10001FFFC520FFF72EFF0220FFF719FFC82096
:100C2000FFF728FF0720FFF713FF0720FFF710FF4C
:100C30000720FFF70DFF5020FFF70AFF0820FFF7FE
:100C400007FF0020FFF704FF0720FFF701FF072041
:100C5000FFF7FEFE0720FFF7FBFE0520FFF7F8FE7B
:100C60000220FFF7F5FE0620FFF7F2FE3620FFF721
:100C700001FFE820FFF7ECFE3A20FFF7FBFE5520CE
:100C8000FFF7E6FEF020FFF7F5FE0120FFF7E0FE9C
:100C9000F320FFF7EFFE4020FFF7DAFE0A20FFF710
:100CA000D7FE2A20FFF7E6FE0020FFF7D1FE002046
:100CB000FFF7CEFE0120FFF7CBFE3F20FFF7C8FE77
:100CC0002B20FFF7D7FE0020FFF7C2FE0020FFF722
:100CD000BFFE0120FFF7BCFEDF20FFF7B9FE782042
:100CE00000F090F82920FFF7C5FE2C20FFF7C2FE88
:100CF000BDE8F840052000F085B80B461A460146CD
:100D0000E8E610B589B280B2FFF7F7FF52480088D5
:100D1000BDE810409CE65049088070474E49488025
:100D2000704770B506460022F0234FF4A0711046BC
:100D3000FFF7D0FE00244FF496353046FFF788FECB
:100D4000641CAC42F9D370BD2DE9F0410C469046CD
:100D500000F1170182B28BB204F10F0081B20025BD
:100D6000A0B2FFF7B7FE3C4F0126002438F815006B
:100D700006FA04F108420BD0B7F80000FFF768FE4E
:100D8000641C102CF2DB6D1C182DEED3BDE8F08135
:100D90007888F3E7203A304BD2B202EB42021B1DB7
:100DA00003EB0212D0E72DE9F041002507460C467F
:100DB0002E4606E031463846FFF7ECFF1036641C3D
:100DC0006D1C2278002AE1D0142DF3D3DEE723A195
:100DD000E9E770B502FB03F502440B44521E96B2DC
:100DE0005B1E8AB29BB2314680B2049CFFF772FE52
:100DF000002604E034F8020BFFF72AFE761CAE4210
:100E0000F8D370BD012242F2107304E00121491CA5
:100E10009942FCD3521C8242F8D970471014014009
:100E2000001001400C180140001002400000303357
:100E3000696430203D2025582C20696431203D20F4
:100E400025582C20696432203D2025582C206964C7
:100E500033203D2025580A0040000020202020207B
:100E60002020202020202020202020202020202082
:100E70000000000040EA01039B0703D009E008C915
:100E8000121F08C0042AFAD203E011F8013B00F84F
:100E9000013B521EF9D270472DE9FE4F81EA03044F
:100EA00021F0004504F0004423F000414FF0000A17
:100EB000009450EA050302D052EA010304D1002055
:100EC000014603B0BDE8F08FC1F30A53C5F30A54DD
:100ED0001C44A0FB02B3C5F3130545F4801CC1F309
:100EE000130141F480180CFB023300FB083EA4F20E
:100EF000F334810A930A41EA8C5143EA88530194FE
:100F0000A1FB03474FEA9C2505FB03734FEA982694
:100F100001FB06373D05260545EA1435BBEB060106
:100F20006EEB0503850E920E45EA8C1542EA881297
:100F3000A5FB0206261E67EB00070C0D44EA0334EE
:100F4000A41947EB1350C1F313064FF000031946E1
:100F50004FEA033343EA165343EA0403019CE5FBDB
:100F60000201A4F10C040294009C4FEA0632CDE980
:100F700000A400F077F8A4E70EB5C10F80EAE07096
:100F80000844CA07002140F233438DE80E000A46A8
:100F90000B4600F067F803B000BDC1F30A52C1F37D
:100FA000130140F2FF3341F480119A4201DA00202C
:100FB000704740F233439A42A2F2334202DC52427B
:100FC00000F033B8904070472DE9F05F05460020EF
:100FD00092469B4688460646814640241BE02846AA
:100FE00041464746224600F020F852465B46801AAA
:100FF000994110D310461946224600F097F82D1A51
:1010000067EB01084F4622460120002100F08EF8D0
:1010100017EB00094E41201EA4F10104DFDC484615
:1010200031462A464346BDE8F09F202A04DB203A99
:1010300021FA02F00021704721FA02F3D040C2F1F8
:101040002002914008431946704710B5002B08DA7A
:10105000401C41F1000192185B411A4301D120F07C
:10106000010010BD2DE9F04D92469B4611B1B1FA39
:1010700081F202E0B0FA80F22032904600F056F899
:1010800006460F4640EA0A0041EA0B0152465B461B
:10109000084303D130463946BDE8F08D194652EA7F
:1010A000010015D0C8F140025046FFF7BEFF0446CC
:1010B0000D4650465946424600F038F8084301D0E4
:1010C000012000E00020044345EAE07526432F4359
:1010D0000A984FEAD625A0EB08000A304FEA46539B
:1010E0004FF0000245EA47554FEAD72402D50020C9
:1010F0000146D1E7010550196141DDE908450019B4
:101100006941BDE8F04DA0E7064C074D06E0E068F8
:1011100040F0010394E8070098471034AC42F6D33E
:10112000FFF71AF82452000844520008202A04DB72
:10113000203A00FA02F1002070479140C2F12003EA
:1011400020FA03F319439040704770B58C1810F8DB
:10115000015B15F0030201D110F8012B2B1106D110
:1011600010F8013B03E010F8016B01F8016B521E0F
:10117000F9D1B3B110F8012B05F00C058A1A0C2D2A
:1011800004D0A2EB851203F1020308E010F8015B22
:10119000A2EB0522F7E712F8015B01F8015B5B1E89
:1011A000F9D5A142D3D3002070BD00000FB4054B88
:1011B00010B503A9044A029800F018F810BC5DF8B5
:1011C00014FB0000650200086815002002E008C852
:1011D000121F08C1002AFAD170477047002001E0B1
:1011E00001C1121F002AFBD1704700002DE9FF4FFB
:1011F0008DB004469B460F46002641E1252801D0CC
:101200000F9963E00025641CA14AA84601212378B8
:10121000203B01FA03F0104202D00543641CF6E7BC
:1012200020782E2817D114F8010F45F004052A283C
:101230000ED06FF02F022078A0F1300109290AD8D2
:1012400008EB880102EB410100EB0108641CF2E7A6
:1012500057F8048B641C20786C280DD004DC4C28D3
:1012600012D06A2811D104E074280DD07A280CD14C
:101270000AE045F4001507E0617845F480158142E5
:1012800002D1641C05F58015641C94F800C0BCF103
:10129000690F4DD00CDCBCF1000F6ED0BCF1580FC3
:1012A0006FD0BCF1630F16D0BCF1640F0CD13FE0DE
:1012B000BCF1700F6AD0BCF1730F15D0BCF1750F83
:1012C0005DD0BCF1780F5CD00F9960465A469047CC
:1012D00006F10106D3E001CF8DF8000000208DF863
:1012E0000100E946012003E057F8049B4FF0FF306E
:1012F00069074FF0000501D40AE06D1C45450DDA81
:101300008542FADB19F805100029F6D106E06D1CBC
:101310008542FCDB19F805100029F8D12E4404E0C1
:1013200019F8010B5A460F9990476D1EF8D2A6E0A6
:101330000A200021CDE90801C5F3025002280AD095
:1013400001CFC11700290DDA0023D0EB030063EBB6
:1013500001012D2209E007F1070727F00707F7E849
:101360000201EFE72A0504D52B228DF8282001225F
:1013700030E0EA072ED02022F7E785E001E00A20DE
:1013800000E010200021CDE9080107E01020002135
:1013900045F00405CDE908014FF00808C5F30250F7
:1013A00002281CD001CF00214FF0000A2A0712D5D5
:1013B000BCF1700F19D0DDE9083283F0100313433C
:1013C00009D150EA010206D030228DF828208DF88C
:1013D00029C002229246BCF1580F10D00AE0FF1D2E
:1013E00027F00707F7E80201DEE740228DF8282002
:1013F0004FF0010A27A20DF120090B9209E02AA261
:10140000F9E7DDE90823FFF7DFFD0B9B9B5C09F89B
:10141000013D50EA0102F4D1ADEB090000F12000DA
:101420000890680701D44FF001080899884502DD4B
:10143000A8EB010000E000208046002506E00AA895
:101440005A46405D0F999047761C6D1C5545F6DB5A
:1014500004E030205A460F999047761CB8F10001FD
:10146000A8F10108F5DC05E019F8010B5A460F99BF
:101470009047761C0899481E08900029F4DC641CEB
:10148000207800287FF4BAAE11B03046BDE8F08F66
:10149000092801003031323334353637383961624A
:1014A000636465660000000030313233343536370E
:1014B0003839414243444546000000002DE9F041DF
:1014C0002B4D0646E87918B1B00F35D1032031E035
:1014D00026F040400F3020F00307002E03DBFFF71B
:1014E00023F90120E8712348B10F4FF000080ED016
:1014F00029684268394402EB4202B1EB920F06D9E7
:10150000E879C8B185F80780FFF709F914E00468A5
:1015100020686268011B891AB94210D2044600682B
:101520000028F5D1E87918B185F80780FFF7F7F8BA
:10153000B00F01D1FEF7DAFF0020BDE8F081A2B1C3
:10154000101921680160206000F1080447602868D4
:1015500038442860E87918B185F80780FFF7DFF88C
:101560002680A4F802802046E7E767600834EEE7AB
:1015700060150020D05100082DE9F041884607464B
:1015800000F0D2F900284CD0274D00262C680BE043
:10159000207838B10422394604F10A0000F0C2FF75
:1015A000012833D00E34761C2879B042F0DC1F4974
:1015B000384600F07BFFB0B91C48001D01F0A2F8CE
:1015C00000282ED000262C680AE0207830B10622B0
:1015D0004146201D00F0A6FF01281CD00E34761CC9
:1015E0002879B042F1DC012000F022F8002818D060
:1015F000C0EBC0006FF00D0202EB4000296804222E
:101600000C18394604F10A0000F097FF0622414603
:10161000201D00F092FF6879E070A879A070032087
:101620002070BDE8F0810000E0510008645C0020FB
:10163000F0B52349064601221746086803E00378FF
:101640004BB10E30521C0B799342F8DA00204C79E2
:1016500001220B680DE0077046701046F0BD5D7802
:10166000012D04D1DD78A54201D82C4610460E3359
:10167000521C0D799542F2DAB0B94D7901220B680E
:101680000CE000BF93F801C0BCF1020F04D1DC787C
:10169000AC4201D8254610460E33521C91F804C0C6
:1016A0009445EFDA0028D9D00B68C0EBC0016FF089
:1016B0000D0202EB410119440F704E70F0BD0000A5
:1016C000E05100082DE9F041224C064688460027EB
:1016D00025680BE0287838B10422314605F10A006C
:1016E00000F020FF012832D00E357F1C2079B8424F
:1016F000F0DC304600F018F9002828D016493046B2
:1017000000F0D4FE002822D00120FFF791FF050051
:101710001DD0114A3146002000F052FAC5EBC50138
:101720006FF00D0202EB410120680422451831469A
:1017300005F10A0000F001FF06224146281D00F0D5
:10174000FCFEE079E870A079A87003202870BDE85D
:10175000F0810000E0510008645C00202DE9F047B2
:1017600088468146274900F0A1FE48B9254C201D36
:1017700000F0C8FF00283AD004F104094FF0000837
:10178000214D002702262C680BE0207838B1042276
:10179000494604F10A0000F0C5FE012829D00E34A4
:1017A0007F1C2879B842F0DC4046FFF741FF040077
:1017B0001CD0144A4946002000F002FAC4EBC401D0
:1017C0006FF00D0202EB41012868042244184946DB
:1017D00004F10A0000F0B1FE06220C49201D00F0C1
:1017E000ACFEA879A070E879E07026700020BDE812
:1017F000F08720780328F9D36078012800D166703B
:101800002046F4E7645C0020E05100081E52000806
:101810002DE9F041374D3849287810B90A7A9207F6
:1018200066D50122401C8A7228700027334E5AE088
:10183000C0EBC0026FF00D00316800EB42000C18E5
:101840002078D8B3E07820B1401E10F0FF00E0709F
:1018500046D1607878B10422294904F10A0000F0E9
:1018600061FE012806D0607801280FD018B1022847
:1018700001D035E067702078032823D0A07870B3BA
:10188000401E10F0FF00A07029D01DE02078032832
:1018900025D0A07818B3401E10F0FF00A0701ED015
:1018A00002202070F079E07004F10A00054600F093
:1018B00029FF134A121F10B129460BE010E0002146
:1018C000201D08E0042020700D4AF079E070121FFE
:1018D00004F10A010020BDE8F04100F071B9277061
:1018E0002878401C28703179C0B28142A0D22F7074
:1018F000BDE8F08144150020A05C0020E051000804
:10190000685C002030B5074A00210B4601241068AE
:1019100003E0037044700E30491C15798D42F8DCE9
:1019200030BD0000E051000801787F2912D00E225E
:10193000B2EB111F0ED0006860B1411C0AD00649FD
:101940000A68896842400A4202D10143491C01D019
:101950000120704700207047645C00200448007A32
:10196000002804D0034A0020114600F029B970472E
:10197000E0510008645C00202DE9F0471F4E054649
:10198000002700F1080A00F10E094FF00908346839
:101990001DE02078012818D9E98898FA88F0B1EB81
:1019A000104F0AD10622211D504600F0BBFD60B148
:1019B0000422494604F10A0011E0042204F10A015C
:1019C000484600F0AFFD012806D00E347F1C307968
:1019D000B842DEDCBDE8F08706225146201D00F04B
:1019E000ACFD6078022801D1012060707079E07050
:1019F000B079A07003202070ECE70000E0510008EF
:101A00002DE9F04101882A2955D3418A012212BAD1
:101A1000B1EB124F4FD1818A4FF4006212BAB1EB91
:101A2000124F48D1817D062945D1C17D042942D17B
:101A3000018B00F1120409BA0A0C00F1200600F132
:101A40001A0800F12A05012A09D0022A4BD02430B5
:101A5000082A38D0092A2ED106222D494AE004222C
:101A60002C49284600F05EFD28B141463046FFF77C
:101A700083FD022132E004223146284600F052FD67
:101A8000002818D0244D00272C6818E0207803285F
:101A900013D306224146201D00F044FD68B1042204
:101AA000314604F10A0000F048FD6879E070A87939
:101AB000A07003202070BDE8F0810E347F1C2879CF
:101AC000B842E3DCF7E70622114900F02BFD0028BD
:101AD000F1D041463046FFF74FFD09212046BDE8D1
:101AE000F04100F01DB8284600F00CFE58B1042269
:101AF0000849284600F016FD0028DCD02046BDE845
:101B0000F041FFF739BF0549002049680870D2E766
:101B100024000020645C0020E051000844150020EF
:101B20002DE9F04105460E462A20FFF7C7FC044682
:101B300005F1080106220F46001D00F0FEFC0622FA
:101B40001D4904F10A0000F0F8FC40F6060000BA56
:101B5000000C2082012000BA000C60824FF400606B
:101B600000BA000CA0820620A0750420E07530BAEF
:101B7000000C20830622394604F1240000F0DDFC2D
:101B8000042205F10E0104F12A0000F0D6FC062221
:101B9000094904F11A0000F0D0FC0422074904F1BD
:101BA000200000F0CAFC2046FEF7C3FD2046BDE839
:101BB000F04100F065B9000024000020645C0020C2
:101BC0002DE9F04105460F4616462A20FFF776FC20
:101BD00004460DB1294600E024490622201D00F0EC
:101BE000ACFC0622224904F10A0000F0A6FC40F6F3
:101BF000060000BA000C2082012001BA090C6182A3
:101C0000C10209BA090CA1820621A1750421E1755E
:101C100005B1082000BA000C20830622144904F103
:101C20001A0000F08AFC0DB1294600E01149062295
:101C300004F1240000F081FC06B90E4E0422314666
:101C400004F1200000F079FC0FB1394600E00949A9
:101C5000042204F12A0000F070FC2046FEF769FD22
:101C60002046BDE8F04100F00BB900001E5200080C
:101C7000240000200852000800B5002200F006F8F9
:101C8000C04380B200BA000C00BD000005E000BFF8
:101C900030F8023B891E5BBA1A440129F8DC11B105
:101CA000007802EB002290B200EB124000EB1040F3
:101CB00080B27047084400EB104080B270470000CB
:101CC00006220249001D00F02DBC00002400002067
:101CD00010B5FEF729FDFEF73DFC07480021017015
:101CE0004170FEF71CFDFFF70DFE0621034800F0D2
:101CF0002FFC0349486010BDE05B00202400002059
:101D0000A05C002070B5AFF30080FFF781FD2E4985
:101D10000A784878824255D02C4B01229A7201EB06
:101D20008002401C546800F01F004870208A00BAEE
:101D3000000CB0F5006F07D0A0F5006006383CD16C
:101D40002046FFF75DFE38E00021204600F00EFA45
:101D500038B3201D054606221D4900F0E3FB68B993
:101D6000284600F0CFFC1B49B1EB102F06D004F140
:101D70000A0104F11E00FFF7A5FC05E004F10A01C9
:101D800004F11E00FFF7F8FBE07E012806D00228D0
:101D900008D006280ED011280FD107E0204600F009
:101DA000DBF80AE02046FEF7C0FB06E0204601F023
:101DB00009FC02E0204600F067FF2046BDE87040C5
:101DC00000F05EB870BD0000E05B0020A05C002069
:101DD0001E5200085E00010070B5044600F12205A5
:101DE000234E04222349284600F09CFB50BB04F1FB
:101DF0001E0000F087FC002838D02A780E2300202F
:101E00000121B3EB121F0CD1217160715E20A07112
:101E1000687800F07F00E071A8782072E87860723E
:101E200015E015482968026880684A40024202D1DC
:101E30000843401C06D001212846FFF78FFC0028EC
:101E400014D0061D06223146201D00F076FB062226
:101E50000A4904F10A0000F070FB4FF4006000BA78
:101E6000000C20822046FEF764FC012070BD0000BB
:101E70001E5200080E520008645C0020240000205E
:101E80002DE9F041002837D01C4DA0F10807E87972
:101E900008B1032025E0DFF868800026D8F800406C
:101EA000FEF742FC0120E87100200AE02646246883
:101EB0002168890704D0E871FEF731FC022010E0A8
:101EC0005CB1BC42F2D129686268891A2960D8F8ED
:101ED0000010A14209D1606009E0E871FEF71FFC23
:101EE0000120BDE8F041FEF701BB21683160E871D7
:101EF000BDE8F041FEF713BCBDE8F081601500209D
:101F0000D051000810B50346074C084600224FEA9E
:101F1000036301464FEA4000594000D560405B0032
:101F2000521C082AF5D310BDB71DC1040449054A47
:101F30004868504343F2390210444860704700003B
:101F4000A05C00206D4EC641024800210170418016
:101F500070470000D05B0020F8B5044630F8261B1F
:101F6000FFF78AFE002858D194F82600002704F1D4
:101F70001E0648B3082850D194F82700F0BB2088EB
:101F80002230FFF79BFA80F8267080F827700785CB
:101F900022880546121F04F12A012A3000F0CDFAEA
:101FA000218805F12600FFF767FE28852088288014
:101FB00080200090002301223146284600F0D0F90D
:101FC0002846FFF75DFF26E0154D2878C00723D08F
:101FD00094F8270090B9042205F10C01304600F076
:101FE000A1FA002818D0618DA88809BAB0EB114F6A
:101FF00013D120881A2810D1612000E00DE02118AB
:1020000011F8331C814208D1401C7328F5DBA96804
:10201000002088472F700120F8BD0020F8BD000087
:10202000D05B002010B50E4C2078C00710D060881F
:1020300028B10C49097AC9070AD0401E07E0607828
:1020400038B1401E607000F011F80748007A6080D7
:1020500010BDA168012088470020207010BD00003D
:10206000D05B0020A05C0020D051000838B51A4D8C
:10207000E888401CE8803C20FFF720FA082180F81F
:102080002610002180F8271004460185A88800BA90
:10209000010C6185E88800BA010CA1856120211836
:1020A00001F8330C401C7328F9DB1A2104F12600D7
:1020B000FFF7E2FD20851A2020808020064900904D
:1020C000002301220C31204600F04AF90546204643
:1020D000FFF7D6FE284638BDD05B00200B4910B56F
:1020E00008380968002203E00A460968002909D077
:1020F0008142F9D106484C6803681B1B036012B18A
:102100000868106010BD0020486010BDD051000864
:102110006015002010B500F013F8074800213C229C
:1021200001804180017205493C3800F006FABDE8A3
:102130001040FEF7DCB90000A05C002092510008BE
:1021400010B5FEF7F1FA08480649D0E90020131847
:102150001B1F002013601860506008608880887121
:10216000C87110BD60150020D05100082DE9F04164
:102170000446808A0E4600BA050C218805F10E003F
:10218000814245D3A07C0421B1EB101F40D1032E26
:1021900032D0264906EB860001EB800104F12200D3
:1021A0000422074600F0BEF930BB0422204938461D
:1021B00000F0B8F900BB5EBB39780E223846B2EBAE
:1021C000111F04D1FEF7AFF9012810D009E017481C
:1021D0003968026880684A40024202D10843401CC4
:1021E00005D02046FFF76CFD90B1E07E02E0E07E76
:1021F000022801D011280BD104F1120000F01AF8C6
:1022000030B9208B43F6FF7109BA10EA114F02D0A2
:102210000020BDE8F081A07C0007800E00F10E01D7
:102220006180281A20800120F3E70000645C002010
:102230000E52000801780907890EFFF71DBD000046
:102240002DE9F04107460078274D7F2809D0274C1B
:10225000A07AC00718D02649384600F027F9A0BB5D
:102260000CE00320287104222249384600F05AF974
:1022700008B9042028711F48BDE8F0810422FF211D
:10228000384600F07AF900BBA07A8107184800F1BF
:102290001400804604D50146384600F007F9D0B94D
:1022A000A07A134E400706F1280604D53146384679
:1022B00000F0FCF898B9A17A0A2088430BD0C9B283
:1022C000142088430BD0C80703D000202871084889
:1022D000D2E7880703D5012028714046CCE70220C9
:1022E00028713046C8E7000050150020D051000882
:1022F000645C002012520008014900200860704709
:1023000050150020144810B50468002C22D0134A40
:10231000012191726168016003212046FFF726FFC9
:10232000012812D1E07E012804D006280AD0112805
:102330000BD103E02046FFF70FFE06E0204601F038
:1023400041F902E0204600F09FFC2046BDE8104025
:10235000FFF796BD10BD000050150020A05C0020C6
:102360002DE9F04704464F4801260025DDF820C03E
:102370000F46012A09D0022A03D0062A01D0112AC9
:102380007ED18672022A02D004E0867202E0608862
:1023900026283ED04520A07420881430208080B2AA
:1023A00000BA000C4049A082E374088803BA1B0CF1
:1023B000401CE3820880062A3AD00020208384F85B
:1023C0001AC0E276A5833846FFF73AFF0146042299
:1023D00004F11E0000F0B1F80422394604F1220095
:1023E00000F0ABF804F112008146FFF723FFA08351
:1023F0002088DFF8B4800E3080B208F10408208015
:1024000098F8041005294BD2DFE801F0171C2227A9
:1024100048004620A074942084F82600042084F804
:10242000270084F8285084F8295020881830B5E710
:102430004FF4804000BA000CC0E72046BDE8F047EA
:10244000FFF7CABC2046BDE8F0472121FEF76FB870
:102450002046BDE8F047FEF76CB8274640F08040C4
:10246000FFF72CF804000CD03A8849460E3A04F1E4
:10247000120000F062F86560D8F8000020B106E0B4
:102480000EE02846BDE8F087C8F8004004E0416847
:1024900009B10846FBE744603046F3E70120F1E765
:1024A0000020EFE7A05C00204C15002000680A68BF
:1024B00042408868024201D00020704701207047E6
:1024C00010B5154C0020617A012905D02072A07248
:1024D000FEF71EF8A07A10BD60720121A172217A68
:1024E0000E4B41F00101217262885B7A1A4492B26C
:1024F0006280B2F57A7FEBD3608041F002002072F7
:1025000020880749401C20806068484343F2390115
:1025100008446060DCE70000A05C0020D0510008A7
:102520006D4EC64110B5521E05D4835C8C5CA3422F
:10253000F9D0002010BD012010BD10B50446104692
:10254000002302E0CA5CE2545B1C8342FADB10BD4C
:1025500070B504460D464FF0FF3006E02278014684
:102560001046FFF7CFFC641C6D1E002DF6D170BD28
:10257000521E01D48154FBE77047521E04D4835C81
:102580008B42FAD0002070470120704710B5074AEF
:102590000321002000F09EFF05490028087004D0A8
:1025A000BDE81040892100F0C3BF10BDB52500086B
:1025B0005E1500202DE9FF4FDFF838B181B01C46D1
:1025C0009BF800100E9F81427ED1892A7CD1322F48
:1025D0007AD360884FF4887109BAB0EB114F73D188
:1025E000A1884FF0010A9AFA8AF0B1EB104F7ED120
:1025F000E188002002BAB1EB124F78D1218902BAEA
:10260000B1EB124F73D16189814600BAB1EB104F23
:102610006DD12820FEF752FF064604F10D0100257A
:102620000A7813014A78A3F58263413A1A43425566
:10263000891C6D1C102DF3D3411911F8011C09B12F
:10264000202901D16D1EF7D12B4806F80590C168ED
:1026500006F11400804600F0A1F86A1C414630469D
:10266000FFF760FF01283BD10C37B8B2804600F07D
:1026700029FF0546208828804FF4054000BA000C49
:10268000688099FA89F0000CA8809AFA8AF0000C08
:10269000E88099FA89F0000C288199FA89F0000CF9
:1026A0006881277B04F10C01BA1D05F10C00FFF7CE
:1026B00044FF1237E81908221049FFF73EFF083798
:1026C000E81904220E4900E011E0FFF736FFCDF8CB
:1026D00000802B4689229BF80000029900F0CEFF73
:1026E0003046FFF7CDFB012005B0BDE8F08F00209C
:1026F000FAE700005E150020D051000816520008CD
:10270000645C002001784278090641EA024182783F
:10271000C07841EA0221084370470A0E02700A0C91
:1027200042700A0A8270C17070470000084A30B4D3
:1027300013785478591C01F01F018C4205D002EB2C
:1027400083035860117030BC704730BCFFF7C6BCC3
:10275000E05B00202DE9F0410F4DEA7922B1BDE8A0
:10276000F0410320FDF7C2BE0180A0F108040F3143
:10277000606821F00306B0420CD9871BFDF7D4FF37
:1027800066602868C01B28600020E871BDE8F04141
:10279000FDF7C5BFBDE8F081601500200A78A2F101
:1027A0006103192B00D8203A0270002A02D0491C7C
:1027B000401CF3E770470000C8B10E490A79824215
:1027C00015D300EB400202EBC00009686FF02B024A
:1027D00002EB800008448178090708D401780A29AF
:1027E00005D1D0E90410814201D1012070470020B9
:1027F00070470000F451000810B588B31E490A79EB
:10280000824236D300EB4002096802EBC0026FF04F
:102810002B0303EB82028C18112122780B2A28D279
:10282000DFE802F0271C1206121C1C1C1C1C1400E2
:1028300084F822102169491C21616169491C13E057
:10284000204600F001FE09E00121F9E7D4E9042364
:102850009A4206D0A07840F00100A070012010BD7F
:1028600007E084F82210591C616100F00BFD05217E
:10287000E6E70020F3E70000F45100082DE9F041FD
:10288000060017461D46884620D0244C2079B042C9
:102890001CD30846FFF736FF002818D0B7B106EB67
:1028A000460101EBC6016FF02B02206802EB8101AB
:1028B00000EB01046078800708D52078012808D053
:1028C000022803D155B16089A84207D00020BDE895
:1028D000F08115B900F02CF80546658104224146C7
:1028E000201DFFF72AFE27810025A5704FF40670F2
:1028F000A08141F21C10E081FFF718FB2061401C11
:10290000C4E90505022084F82200304600F0BAFC34
:102910000421204600F098FD0120D8E7F45100087A
:1029200010B53630FEF7CAFD362141803A3010BD71
:1029300070B50E480E4A4FF480644188491C89B234
:102940004180A14200D2448000234588116807E0FD
:102950004E89AE4202D10E78012EEED82C315B1C8E
:1029600016799E42F4DCA8B270BD00005815002014
:10297000F45100082DE9F0411F2803D813B10E4E81
:102980001AB103E00020BDE8F081F2890125346826
:1029900003E0277847B12C346D1C3779AF42F8DA61
:1029A0000520FDF7A3FDEDE7012626706070E170BC
:1029B000A362A283E8B2E6E7F451000803482C21A1
:1029C000027900684A430021FFF7D2BDF4510008A4
:1029D0002DE9F041244D0646012701F10C082C6831
:1029E00017E02078022812D93088218900BAB1EB8B
:1029F000104F0CD17188608909BAB0EB114F06D124
:102A000004224146201DFFF78DFD012809D02C34FA
:102A10007F1C2879B842E4DA707B10F0150F20D1C2
:102A200002E0F8B2BDE8F08180071AD501272C68D2
:102A300014E0207802280FD17188608909BAB0EBC0
:102A4000114F09D104224146201DFFF776FD308841
:102A500000BA000C2081E4E72C347F1C2879B842AE
:102A6000E7DA0020DEE70000F45100082DE9F04726
:102A70008248834D037AD80712D0002128680CE0E1
:102A8000028C12B1A2F1010202849A0703D5C28B13
:102A90000AB1521EC2832C30491C2A798A42EFDCCB
:102AA00000274FF011084FF09009764EC8E03078BB
:102AB000401CC0B230702979884201D901203070A1
:102AC000C0B200EB400202EBC0006FF02B0229689D
:102AD00002EB80000C1820780B286FD2DFE800F0A2
:102AE000AFAFAF787897A597978B0600D4E904101D
:102AF000401AA178CA0700D038B1E28B72B1002821
:102B00005CD0208C002859D13FE084F82280606995
:102B1000401C6061307800F0B5FB34E06078C0069E
:102B20001FD5C8060FD4C8B240F01000A07084F8BA
:102B30002290307800F0A6FBE8882084687984F839
:102B40002300BDE8F087208C002878D194F823007A
:102B500028B1401E84F8230084F8229061E0C8B2B6
:102B600032E084F822806069401C6061307800F0B7
:102B700089FBA078221D40F00800A070A56A238977
:102B800002213078A847052172E094F82300B0B103
:102B900004F11C04401EE0714FF01800A071A16800
:102BA0004FF0000330780A88174600F07DFBA068DC
:102BB0000780E888A08020886080C2E73FE000218D
:102BC000204600F037FCA07840F00800A0703DE0FF
:102BD000208CA0BB94F82300B8B3401E84F82300D7
:102BE000307800F04FFB2078032802D068892084D9
:102BF000A7E7E888FBE7208C08BB6078C00701D016
:102C0000022100E00121204600F01EFC17E0208C8C
:102C1000A8B994F82300C0B1401E84F8230084F8BA
:102C20002280307800F02EFBE3E7208C38B994F84E
:102C3000230050B1401E84F82300E88820847F1CC4
:102C40002879B8423FF633AF7BE7FFE7042084F8EA
:102C50002200307800F016FB221DA56A238903218B
:102C60003078A8476078C00701D0022100E0012138
:102C70002046BDE8F04700F0E7BB0000A05C002064
:102C8000F4510008581500202DE9F05F418800F14B
:102C9000040B01EB0B050646287B6FF0030202EAEA
:102CA000900014287ED3328882427BD30144101ACC
:102CB00071801FFA80F806F112012846FFF788FE9E
:102CC0005FEA000A06F11E076DD000220421381DBC
:102CD000FEF7DCFF024604213846FEF7D7FF014627
:102CE000F07EFEF7E7FF01463088FEF7E3FF02467D
:102CF00031882846FEF7CAFFC0430004000C51D1BA
:102D0000F9480AEB4A024FF01009016802EBCA00C9
:102D10006FF02B0202EB80000C182078801E09282F
:102D20007BD2DFE800F0C6F6F4F3F2F1F0EF050035
:102D3000687B410704D5A07840F00800A070CCE182
:102D4000810712D5C0062DD5281DFFF7DBFCA16930
:102D5000401C884226D105F10800FFF7D3FC6169C9
:102D600088421FD184F82290AFE1D4E90412914245
:102D70003FD0C00616D505F108000746FFF7C2FC94
:102D800001466069814215D120610021204600F092
:102D900051FBA078221D40F00800A0702389042177
:102DA000504601E083E0CDE0A76AB847A07820F064
:102DB00008001DE0A07840071BD53846FFF7A2FCAD
:102DC00001466069001F814213D12061676A0422B5
:102DD00038883918363107F13A00FFF7AEFB3A214F
:102DE0003846FFF7B7FC04203880A07820F00400B4
:102DF000A070A07820F01000A070281DFFF782FCC2
:102E0000A16988420AD0281DFFF77CFCA169401CFB
:102E10008842A7D1A08BE083A4E767E1A078B8F14E
:102E2000000F40F00800A0700DD0E08958B1718803
:102E3000A66A01EB0B02434605215046B047A16943
:102E400001EB0800A061687BC00717D0D4E904013A
:102E5000884213D1221DA56A238902215046A84722
:102E6000A069401CA0616069401C6061112084F869
:102E70002200504600F006FA082116E1A078B8F1C9
:102E8000000F20F00800A0700FD084F82290607826
:102E9000000707D5E089404502D9A0EB080000E013
:102EA0000020E081504600F0EDF9A08BE083BDE802
:102EB000F09F687B410701D50221F6E0C10601D4ED
:102EC000800704D43946284600F074FAF4E7221D3E
:102ED000A66A238900215046B04798B32946504638
:102EE00000F00AF9FFF722F82061401C6061281DFC
:102EF000FFF708FC00F10100A0614FF0120084F818
:102F0000220050E0E6E0BDE0A3E08FE062E036E0C2
:102F1000FFE7687B41077AD4C10714D005F10800A8
:102F2000FFF7F0FB61698842C1D1281DFFF7EAFB7A
:102F3000401CA0616069206184F82290504600F036
:102F4000A1F911E040E0C10616D505F10800FFF730
:102F5000D9FB61698842AAD1281DFFF7D3FBA1697B
:102F60008842A4D160692061221DA56A23890121BC
:102F70005046A8470A2198E0800798D424E0687B4F
:102F8000410744D4122636EA000111D080071BD530
:102F90002946504600F0B0F8281DFFF7B3FB401C4F
:102FA000A06184F82260504600F06CF903217CE0B7
:102FB00005F10800FFF7A6FB61698842B4D12946F4
:102FC000504600F099F8B0E739462846BDE8F05F72
:102FD00000F0F0B9687B41077FD4C10718D005F134
:102FE00008000646FFF78EFB6169884205D030462F
:102FF000FFF788FB2169884296D1281DFFF782FBE5
:10300000404400F10100A061606920611AE064E0C1
:10301000C0067FF54CAF05F10800FFF773FB0146D2
:103020006069814297D1062120613EE0687B4107BB
:1030300053D4C0073FF43BAF281DFFF763FB404468
:10304000401CA06184F82290504600F01BF9092131
:103050002BE0687B410740D4C10609D505F1080083
:10306000FFF750FB014660698142A7D12061EEE77E
:10307000C007DFD0281DFFF745FB404400F10100E9
:10308000A0616FE6687B410727D4C10612D505F120
:103090000800FFF737FB0146606981428ED120614D
:1030A0006078C0077FF412AF01212046BDE8F05FD1
:1030B00000F0CAB9C007BDD0281DFFF723FB40446C
:1030C000401CA061112084F822005046BDE8F05F4A
:1030D00000F0D8B8687B4107CAD5221DA56A2389AC
:1030E00003215046A847DBE7F4510008BDE8F05F34
:1030F0000620FDF7FBB90000F0B50A7B6FF0030373
:1031000003EA9205143D33D01431002240F2B45347
:103110004FF406742AE08E5C002E29D0012E02D0D6
:10312000022E1ED101E0521C20E001EB020E9EF89F
:103130000160042E15D10F4E00EB400707EBC007CE
:1031400036686FF02B0C0CEB87073744BEF8026033
:1031500076BA9E4201D91E4602E0A64200D2264619
:10316000BE818E187678002E02D03244AA42D2D385
:10317000F0BD0000F45100082DE9F05F0746154648
:10318000A1F13A0611B17088362802D00020BDE8BE
:10319000F09F002F54D03A480179B94250D382466B
:1031A00007EB4701006801EBC7016FF02B0202EB50
:1031B0008101441820780A2842D1A07800073FD422
:1031C000A089A8423CD3D4E90410814238D1B5B3D8
:1031D0002844606105F136013046FFF7BBFA3146FD
:1031E000204600F027F960784FF0180B40072BD5E8
:1031F000042D29D9A07840F00400A0703A20FEF7F1
:103200005DF980467119363104223A30FFF795F99D
:10321000102084F82200281F82B2002391463146F4
:10322000384600F041F884F822B04B46042241466B
:10323000384600F039F84046FEF722FE10E0FFE77E
:103240003046FEF71DFEA1E7A078002320F0040021
:10325000A07084F822B02A463146384600F024F89F
:103260003580A07820F01000A070BAF806102184F4
:103270009AF8050084F82300A08BE083012086E7FC
:10328000F451000870B505463A20FEF717F90446D8
:10329000002301461A46284600F006F82046BDE8FD
:1032A0007040FEF7EDBD00002DE9F8430E461746CD
:1032B00020B13F490A79521C824202D20020BDE867
:1032C000F88300EB4002884602EBC00009686FF00B
:1032D0002B0202EB800001EB000406F12605608959
:1032E00000BA4FEA1040F084208900BA4FEA10403B
:1032F000308594F82200010606D520F0800084F87D
:1033000022002169491E01E02069C118281DFFF72C
:1033100004FA05F10800A169FFF7FFF950202873AE
:1033200094F822006873E08900BA4FEA1040E881FF
:1033300000202882688294F8220080070CD54FF480
:10334000017109BA090C7187B8F81010602009BA28
:10335000090CB18728730427201DFEF771FF002296
:103360000421FEF793FC02460421201DFEF78EFC8B
:1033700001460620FEF79EFC01461437B8B280468F
:10338000FEF798FC024639462846FEF77FFCC0430C
:1033900080B200BA000C2882A6F80080802000903D
:1033A000E3780622211D3046FEF7DAFF87E70000AA
:1033B000F451000870B51E4E05463279306802EBB4
:1033C000420303EBC20200EB8204687B40072ED469
:1033D0000422201DFFF7B1F8288800BA4FEA1040F8
:1033E0002081688800BA4FEA104060810020E070B8
:1033F000697BC9060BD505F10800FFF783F9206149
:10340000042084F82200281DFFF77CF907E02061E2
:10341000142084F82200281DFFF774F9401CA061D5
:103420003079BDE87040401CC0B2FFF72BBF70BDC3
:10343000F451000870B50446406A0D4608B1FEF725
:103440001FFD656270BD000030B41A4A0023017090
:103450000B2922D2DFE801F0232323150B1C1C1CAF
:103460001C060F001189018480F8233015E0918932
:103470000184917C0FE0818BC183817821F0100160
:103480008170D1880184517980F8231030BC704755
:10349000D1880184012180F82310C383F6E783706B
:1034A0004FF40671818141F21C11C18130BC0021B1
:1034B000FFF7C0BFF451000801490120487270476E
:1034C000A05C002010B52A30FDF7F8FF2A214180CA
:1034D0002E3010BD70B5032904D81AB10D4D01244A
:1034E0002B6805E0002070BD1E7846B10C33641CCB
:1034F0002E79A642F8DA0420FCF7F8FFF2E701255E
:103500001D709D715970D87000209880E0B29A604B
:1035100070BD0000EC51000804480179006801EB1F
:1035200041018A000021FFF723B80000EC51000898
:1035300070B50C4650B316490A79824226D3096801
:1035400000EB40006FF00B0202EB80000D182878B2
:1035500001281BD12CB1204600F01EF8012815D0FF
:103560000FE00C4C4FF480662088401C80B2208015
:10357000B04200D22680208800F00EF80028F3D157
:103580002488AC8002202870012070BD002070BD0E
:10359000EC5100085C150020094B10B50022196899
:1035A00009E08C88844204D10C78012C01D90120D7
:1035B00010BD0C31521C1C799442F2DC002010BD6D
:1035C000EC5100082DE9F84305464188001D0C1810
:1035D0000821A08800BAB1EB104F44D82649012039
:1035E0000E6844E03278022A3FD16388B2881BBA61
:1035F000B2EB134F39D110F0FF0734D0707805F1DA
:103600001E08810722D5E08800B30022042105F1BD
:103610002200FEF73BFB024604214046FEF736FB44
:10362000EA7E01461046FEF745FB0146A08800BA37
:10363000000CFEF73FFB0246A08800BA010C2046B2
:10364000FEF724FBC0430004000C0CD1288804F1D1
:103650000803083880B200902088B56800BA020CD0
:1036600041463846A847BDE8F8830C36401C0A7925
:103670008242B7DAF7E70000EC5100082DE9F84381
:103680008946089D9046A3F12E04002B5BD06188EB
:103690002A2958D118B13F490A79824203D22046DB
:1036A000FEF7EEFB4FE0096800EB40006FF00B0205
:1036B00002EB80000E184846FFF724F8E0B3B8F19B
:1036C000000F3AD03078022837D1ADB34FF4B8604C
:1036D000854200D90546B088083500BA000CE08460
:1036E00098FA88F0000C208528BA000C608500202C
:1036F000A085707804F12607C0072CD04846FEF755
:103700009FFD00220421FEF7C1FA0246042148462B
:10371000FEF7BCFA01461120FEF7CCFA0146A8B22A
:10372000FEF7C8FA024629463846FEF7AFFAC0430C
:103730000004000C0AD00BE0FFE7B078C107AED060
:1037400020F00100B0700020BDE8F8834FF6FF7054
:1037500000BA000CF880258099F8001080200E2215
:10376000B2EB111F00D1B0790090F37811224946D5
:103770002046FEF7F5FD0546B078C10705D020F0DC
:103780000100B0702A20608002E02046FEF778FB3E
:103790002846D9E7EC510008FFFFFFFFFFFFFFFFBE
:1037A000FFFFFFFFFFFFFFFFFFFFFFFFFFFFFFFF29
:1037B000FFFFFFFFFFFFFFFFFFFFFFFFFFFFFFFF19
:1037C000FFFFFFFFFFFFFFFFFFFFFFFFFFFFFFFF09
:1037D000FFFFFFFFFFFFFFFFFFFFFFFFFFFFFFFFF9
:1037E000FFFFFFFFFFFFFFFFFFFFDFFFDFFFBFFF69
:1037F000FFFFFFFFFFFFFFFFFFFFFFFFFFF7FFE7F9
:10380000FFE7FFE7FFE7FFEFFFF7FFFFFFFFFFFF28
:10381000FFFFFFFFFFFFDFFFFFFFFFFFFFFFFFFFD8
:10382000FFFFFFFFFEFFFDFFFEFFFFFFFFFFFFFFAC
:10383000FFFFFFFFFFFFFFFFFFFFFFFFFFFFFFFF98
:10384000FFFFFFFFFFFFFFFFFFFFFFFFFFFFFFFF88
:10385000FFFFFFFFFFFFFFFFFFFFFFFFFFFFFFFF78
:10386000FFFFFFFFFFFFFFFFFFFFFFFFFFFFFFFF68
:10387000FFFFFFFFFFFFFFFFFFFFFFFFFFFFFFFF58
:10388000FFFFFFFFFFFFFFFFFFFFFFFFFFFFFFFF48
:10389000FFFFFFFFFFFFFFFFFFFFFFFFFFFFFFFF38
:1038A000FFFFFFFFFFFFFFFFDFFFDFFFDFFFFFFF88
:1038B000FFFFFFF7FFF7FFF7FFF7F9BE3596D38558
:1038C000B37DF3857696DBC7FEE7FEE7FFF7FFFFE4
:1038D000FEFFFFFFFFFFFFFFFFFFFFFFFFFFFFFFF9
:1038E000FFFFFFFFFEFFFFFFFFFFFFFFFFFFFFFFE9
:1038F000FFFFFFFFFFFFFFFFFFFFFFFFFFFFFFFFD8
:10390000FFFFFFFFFFFFFFFFFFFFFFFFFFFFFFFFC7
:10391000FFFFFFFFFFFFFFFFFFFFFFFFFFFFFFFFB7
:10392000FFFFFFFFFFFFFFFFFFFFFFFFFFFFFFFFA7
:10393000FFFFFFFFFFFFFFFFFFFFFFFFFFFFFFFF97
:10394000FFFFFFFFFFFFFFFFFFFFFFFFFFFFFFFF87
:10395000FFFFFFFFFFFFFFFFFFFFFFFFFFFFFFFF77
:10396000FFFFFFFFFFFFFFFFFFFFFFFFFFFFFFF76F
:10397000FEEFFDDF969630652C444C446C3C4B2C9E
:103980002924E81BAA246E3DB486FDCFFEE7FFF78D
:10399000FFFFFFFFFFFFFFFFFFFFFFFFDFFFDFFF77
:1039A000FFFFFFFFFFFFFFFFFFFFFFFFFFFFFFFF27
:1039B000FFFFFFFFFFFFFFFFFFFFFFFFFFFFFFFF17
:1039C000FFFFFFFFFFFFFFFFFFFFFFFFFFFFFFFF07
:1039D000FFFFFFFFFFFFFFFFFFFFFFFFFFFFFFFFF7
:1039E000FFFFFFFFFFFFFFFFFFFFFFFFFFFFFFFFE7
:1039F000FFFFFFFFFFFFFFFFFFFFFFFFFFFFFFFFD7
:103A0000FFFFFFFFFFFFFFFFFFFFFFFFFFFFFFFFC6
:103A1000FFFFFFFFFFFFFFFFFFFFFFFFFFFFFFFFB6
:103A2000FFFFFFFFFEFFFFFFFFFFFFF7FFF777AE90
:103A3000317D927DF79EFDCFFDD7FDCFFAB7D8A798
:103A4000D47E891469146A1C8B34B596FEDFFFF7A7
:103A5000FFFFFFFFFFFFFFFFFFFFDFFFDFFFFFFFB6
:103A6000FFFFFFFFFFFFFFFFFFFFFFFFFFFFFFFF66
:103A7000FFFFFFFFFFFFFFFFFFFFFFFFFFFFFFFF56
:103A8000FFFFFFFFFFFFFFFFFFFFFFFFFFFFFFFF46
:103A9000FFFFFFFFFFFFFFFFFFFFFFFFFFFFFFFF36
:103AA000FFFFFFFFFFFFFFFFFFFFFFFFFFFFFFFF26
:103AB000FFFFFFFFFFFFDFFFDFFFFFFFFFFFFFFF56
:103AC000FFFFFFFFFFFFFFFFFFFFFFFFFFFFFFFF06
:103AD000FFFFFFFFFFFFFFFFFFFFFFFFFFFFFFFFF6
:103AE000FFFFFFFFFEFFFFFFFFF7D59D37AEFEE7AD
:103AF000FFF7FEEFFFF7FFF7FFF7FFF7FFEFFFE737
:103B000099B790654924891C89146E45FFE7FFF732
:103B1000FFFFFFFFFFFFFFFFFFFFFFFFFFFFFFFFB5
:103B2000FFFFFFFFFFFFFFFFFFFFFFFFFFFFFFFFA5
:103B3000FFFFFFFFFFFFFFFFFFFFFFFFFFFFFFFF95
:103B4000FFFFFFFFFFFFFFFFFFFFFFFFFFFFFFFF85
:103B5000FFFFFFFFFFFFFFFFFFFFFFFFFFFFFFFF75
:103B6000FFFFFFFFFFFFFFFFFFFFFFFFFFFFFFFF65
:103B7000FFFFFFFFDFFFDFFFFFFFFFFFFFFFFFFF95
:103B8000FFFFFFFFFFFFFFFFFFFFFFFFFFFFFFFF45
:103B9000FFFFFFFFFFFFFFFFFFFFFFFFFFFFFFFF35
:103BA000FFFFFFFFFFFF9CDFBDDFFFF7FFF7FFFF1A
:103BB000FFFFFEEFFFF7FFF7FFF7FFFFFFFFFFF746
:103BC000FEE73697CB2C890CA91499AFFEE7FFFFCF
:103BD000FFFFFFFFFFFFFFFFFFFFFFFFFFFFFFFFF5
:103BE000FFFFFFFFFFFFFFFFFFFFFFFFFFFFFFFFE5
:103BF000FFFFFFFFFFFFFFFFFFFFFFFFFFFFFFFFD5
:103C0000FFFFFFFFFFFFFFFFFFFFFFFFFFFFFFFFC4
:103C1000FFFFFFFFFFFFFFFFFFFFFFFFFFFFFFFFB4
:103C2000FFFFFFFFFFFFFFFFFFFFFFFFFFFFFFFFA4
:103C3000FFFFDFFFFFFFFFFFFFFFFFFFFFFFFFFFB4
:103C4000FFFFFFFFFFFFFFFFFFFFFFFFFFFFFFFF84
:103C5000FFFFFFFFFFFFFFFFFFFFFFFFFFFFFFFF74
:103C6000FFFFBEEF3CDFFFFFFFFFFFFFFFFFFFEFA8
:103C7000FEDFFEDFFEE7FFEFFFF7FFF7FFFFFEF7D8
:103C8000FEE7FBC7EC3C8914CB2C99BFFFF7FFFF85
:103C9000FFFFFFFFFFFFFFFFFFFFFFFFFFFFFFFF34
:103CA000FFFFFFFFFFFFFFFFFFFFFFFFFFFFFFFF24
:103CB000FFFFFFFFFFFFFFFFFFFFFFFFFFFFFFFF14
:103CC000FFFFFFFFFFFFFFFFFFFFBFFF9FFF7EFF25
:103CD0007DFF7EFF9EFFBEFFDFFFFFFFFFFFFFFFB9
:103CE000FFFFFFFFFFFFFFFF9EFF7EFF7DFF7DFFCA
:103CF0005DFF5DFF7DFF7DFF5DFF5DFF5DFF5DFFA4
:103D00005DFF5DFF5DFF5DFF5DFF5DFF7DFF7DFF93
:103D10005DFF5DFF5DFF7EFFDFFFFFFFFFFFFFFF3A
:103D2000DEEFFFFFFFFFFFF7FFEFFDD7D79E2E4D22
:103D3000ED44ED4C9065758EBBCFFEF7FFFFFFFFA6
:103D4000FFEFFBC7CC34880CAC44FCD7FFEFFFFF80
:103D5000FFFFFFFFDFFF9EFF7DFF7DFF7DFF5DFF1C
:103D60005DFF5DFF7DFF7DFF5DFF5DFF5DFF5DFF33
:103D70005DFF5EFF5EFF5DFF5EFF7EFFBFFFDFFF5B
:103D8000DFFFFFFFFFFFFFFF7DFF4CAB28C2E8D93D
:103D900049D249BA79FE9EFFFFFFDFFFFFFFFFFF19
:103DA000FFFFFFFFFFFF6FE3A8C928DA28DA08D278
:103DB000E8D908DA08DA08DA09D228D228D209DAEA
:103DC00009DA08DA08DA08DA08DA28D208D229DAB1
:103DD00008D2E8D109DAB7FD9EFFDFFFFFFFFFFF42
:103DE000FFFFFFF7FEE7B58EEC2C8914CA0CC90C57
:103DF000CA14C90CA914AA1CFCD7FFEFFFFFFFF7D8
:103E0000FFEF9AB70A156814D05DFFEFFFFFFFFFC1
:103E1000FFFFBFFFD4FCC8C108D229DAE8D909DA0C
:103E200009DA09DA09D229D208DA08DA08D209DA75
:103E300009DA09DA09DAE9D16BDA30F41CFFBEFFDE
:103E4000FFFFFFFFFFFFBDFFD2ECA3B8A3E0C3D885
:103E5000A2B8AEEB9EFFFFFFFFFFFFFFFFFFFFFFDC
:103E6000DFFFBEFFC4B8C4E0A2D8C3E0C4E0A4E052
:103E7000A3E0A3E0C3E0C3E0C4E0C3E0A4E0A4E0A7
:103E8000C3E0C3E0A3E0A3E0C4E0C3D8C4E0C3E060
:103E9000C3E0C4E045A996FDBEFFFFFFFFFFDEF7CC
:103EA000FEE7905D691CE90C2A052A05290529050C
:103EB000290549050905EC3CDBC7FFE7FFFFFFFFCC
:103EC000FFE78814E90C891C38AFFFF7FFFFFFFFFD
:103ED0009EFFACE2A3D0C3D8A3D8A4E8A4E8A4E092
:103EE000A4E0A4E0C4E0A4E0A3E0A3D8C4E083E09D
:103EF000A4E8C3E0C4E0C4D0C3B8EBD27DFFFFFFA9
:103F0000FFFFFFFFDEFF3CFFC8C9E5F0A4E8E5E0E6
:103F100087C9DBFEBEFFFFFFFFFFFFFFFFFFDFFFE5
:103F20005DFFA3C0E4F0E3E8E3E8C4F0A4E8C4F074
:103F3000C4F0C4F0C4F0C4F0C4F0C4F0C4E8E4E8D1
:103F4000E4E8C4F0C4F0C5E8C5E8C4E8C3E8C3E8E1
:103F5000E4E0C3C8ABD27EFFDFFFFFFFFFF7905D59
:103F60006914EA0C09054A052A054A054A05490566
:103F700029054A05A90CEC34FCC7FFEFFFF7FFEF5A
:103F80000C3DE90CA80C2E55FEE7FFF7DEFFDBFE2B
:103F900046C9C3E0E3E8E3F0A4E8C4F0C4F0C4F029
:103FA000C4F0C5F0C4F0C4E8E4E8C4E8C5F0C4F067
:103FB000C2E8E3E0E4E0C4E0C4B897FDFFFFFFF728
:103FC000FFFFDEFF9EFFD4FCC5E0C5F0C5F0A4C036
:103FD000B3F49EFFFFFFDFFFFFFFFFFFBEFF5AFEB0
:103FE00004D9C3E8E3F004E983D0C4D0C4D0E4C862
:103FF000C4D0C4D0C4D0C4D0C4C8C4C8E4C8E4C801
:10400000C4D0C4D0C5D0A4D0C4D8C4E8E4F0E3E898
:10401000C4E0C8C91DFFFFFFFFFFFEEFAA14EA0CB2
:104020002A054A0509050905290549054A0509051D
:104030000A052905880C2E4DFEDFFFF7FFF7748671
:10404000A90C0A154A24B9B7FEF7DFFFD3DCE4A8B0
:10405000E4D0C3C8C3C8E5D0C4D0C4D0C4D0C4D091
:10406000C4D0C4D0C4D0C4C8C4C8C4D0A4D8E3E8A1
:10407000E3E8E4E8E5F883C8B3ECFFFFFFFFFFFFE8
:10408000FFFFBEFF1CFFC4D0C5F0A4E8E5D009C205
:104090001CFFFFFFFFFFFFFFFFFF9EFFAFF304E1E9
:1040A000E3E8E5F0E5D0ACDA6ED34DD34DD34DD394
:1040B0004DD32DD34DD34DD34DD34DD34DD32DD340
:1040C0002DD32EDB0DE329E2C4E0C4F0C3F0E4E815
:1040D000C8D13EFFFFFFFFF7FCCFE904E9042A0542
:1040E000090529054905490549054A0529052A05FE
:1040F000490D090D89143697FEEFFFFFFCCFAB1C6D
:10410000EA0CAA145376FEEFBFFFF3CC2CC34DDBB1
:104110004CD34DDB0DD32DD34DD34DD32ED32ED336
:104120002DDB2DDB4EDB4EDB0DDBCCEAC4E0E4E81F
:10413000E4E883E8C4C8F4F4FFFFFFFFFFFFFFFFDC
:10414000DFFF9EFFE5C0C5E0E5E805E1C4C014FD62
:10415000FFFFFFFFDFFFDFFFDBFE87C9E4E8E4E8E6
:10416000A4D08BEAFDFE3DFF1CFF3CFF3CFF3CFF63
:104170003DFF3DFF1DFF1DFF3CFF3CFF1CFF1CFFE3
:10418000FDFEDCFEECFAA4D8A4F0C4F0A3D0ECE26F
:104190007FFFFFFFFFEF747E4A054A0D29052A05C0
:1041A0004A0DC914C90CC90CA90CA90CCA14A9142C
:1041B000A91469140D4DFEEFDFFFFFE74E3DEA0C39
:1041C000C90C6E45FFE7BEFF7DFF3CFF1CFF1CFFD7
:1041D0001CFF1DFF1DFF3DFF3DFF1DFF1DFF1CFFC1
:1041E0001CFF1CFFFCFEFDFEF9FDE5E8C4E005E94F
:1041F00005E905C1F8FDFFFFFFFFFFFFFFFFFFFF20
:10420000DFFF29D2E4D8C4E004E9A3D86AE2DFFFE3
:10421000FFFFDFFF9DFF72ECA4C0A3E804E125B916
:1042200076FD1DFF56FD14FD14FD14FD14FD15FD56
:1042300014FD15FD15FD14FD34FD14FD14FDF4FCF5
:104240008FFB25D1E4E8A3E8C4E8E4B055FD9FFF67
:10425000FFF7FFDF4E4D2905080549052A05C9046A
:104260002F4D2F4D4F4D2E4D4F4D2E450F4D0E4D79
:104270000E4DCE5CDDE7FFFFFEE75266A90CE90CB0
:10428000CB24FEDF9AFE55FD15FDF4FC15FDF4FC74
:1042900034FD34FD34FD34FD14FD14FD14FD34FDF6
:1042A00034FD14FD93FC09EAE4E8A4E8E5E8C3D092
:1042B00049D29DFFFFFFFFFFFFFFDFFFFFFFFFFF73
:1042C000F4FCE4B804D9E4E8C4E8E4C8BFFFFFFFA5
:1042D000DEFF1CFF08C2E5D8C4F0E4D0EBD23CFFFF
:1042E000F4FC05A1E4C0E4C0E4C004C105C104C1FC
:1042F000E5C0E5C004C104C104C1E4C0E4C8C4D041
:1043000005E1E4E8E4E8E4E84DD37EFFBFFFFFF712
:10431000FDCFCC342905490529050905CB1CFFDF54
:10432000FFDFFFDFFEDFFEDFFEDFFFE7FFE7FFDF90
:10433000FEE7FFF7FFFFFFEFB376890C290DCA1CDC
:10434000DBCF6DD3A3A805C1E5C0E5C8E5C004B9BE
:1043500004B904B904C104C104C104C104B904B955
:1043600004C1A4C8C4D8C4E8E4E8C4D804B996FD1C
:10437000BEFFFFFFFFFFFFFFDFFFFFFFFFFF1CFF91
:104380004AC205D1C4E8C4F0C3C87DFFDEFFBDFF4B
:10439000B2FCC4B805E1C4E804C9F7FD5DFF49DA21
:1043A000E4D006E9E4E0E4E0E4D805E105E105E174
:1043B00005E1E4E0E5E004E104E104E1E4E025E90D
:1043C000E4E8E4E8C3D03CFFBFFFFFFFFFF7FCC712
:1043D0008B244A0529050A0DAA14F165FFF7FFF79A
:1043E000FFF7FFF7FFF7FFF7FFF7FFF7FFF7FFF71D
:1043F000FFFFFFFFFEEFD58E89142905C91CBACF38
:10440000A6C104D905E105E9C5E0E5E0E4E004E181
:1044100004E104D904D904E105E105D925D9E4E092
:10442000E5E8C5F0C5F0C4E866D197FD7EFFDFFF83
:10443000FFFFFFFFFFFFFFFFFFFFFFFFFFFF5EFF2D
:104440002AD2C4D805E9C4E011FC5DFF54FD25C99A
:10445000A3E0E4E806C157FD1CFF0CD3E4D0C4E898
:10446000C5D805C166B945B186B966C165B966B931
:1044700046C146C166C166B945C905D9E5E0E5E86A
:10448000E4E8E5E8FCFEDFFFFFFFFFF7FEDFCC3CE2
:1044900029054A050A05304EFDBFFCC7FDCFFCC704
:1044A000FCCFFCCFFCCFFCC7FDC7FDCFFDCFFDCFC0
:1044B000FDCFFCBFD36EA90C2905AA249CFFE4D034
:1044C000C4E8E5E805D926C146B926B946B966B9B2
:1044D00066B966B946C146C166B966B945B905C986
:1044E00026E105F1C3E8A3C052E49FFFFFFFFFFFF1
:1044F000FFFFFFFFFFF7FFFFFFFFFFFFBFFFF5FC21
:10450000E4C0E4E0E4E887D9BBFECBD2C4D0E5F058
:10451000E4E8EEDADDFE96FD25B905E1E5F025D902
:1045200015FD18FE18FEF8FD18FEF8FD18FEF8FD42
:10453000D8FDF8FDF8FDF8FD6BFAA5E0C5E8A4E8A4
:10454000A4E89BFEFFFFFFFFFFF7FEE7D16D2A0502
:1045500009050A050B1DEC2CCC2CCC2CCC2CCB3417
:10456000AB34CB2CAC34EC3CCD34CC34CD3CAC3483
:104570000C2D0A1D0A0DE9042D4578FEE4D805F13D
:10458000C4E0E9F1D8FDF8FDF9FDF9FD18FE18FECB
:1045900018FED8FDF9FD19FE18FEF8FDF4FCC4D094
:1045A000C4E8C3F0C4D0AFD39EFFFFFFFFFFFFFFFF
:1045B000DFFFFFFFFFFFFFFFFFFFBEFF5DFF4ACAF8
:1045C000E5D8C4E8E5D8CDFA47D9C5E8A5F0C4F0E8
:1045D000D8FD3EFF4DF3A3C8E4E0C4E8ABFA9AFE71
:1045E0007AFEBAFEBBFE7AFEBBFE7AFE7BFE9CFE26
:1045F0009BFEBCFEF4FC27E1C5E8A4E8E5F0E5E895
:10460000DBFEDFFFFFFFFFF7FFF738AF2A0D2A05BC
:104610002A050A0DC904EB0CCA04EA0CCA0CEA14F8
:10462000CA0CC914EA14C90CC90CEA14EA14080526
:10463000090D0A0DC90CF17DB1EC05E1C3E0A3D071
:10464000AFFB79FE9AFE7AFE9AFE9AFE9AFE9AFED9
:104650007AFE9AFE9AFE9AFE18FEACFAA4D8A3E857
:10466000C3F0C3C851E4BFFFDFFFFFFFDFFFFFFF61
:10467000FFFFFFFFFFFFFFFFDFFF9EFF55FDE4C0D1
:10468000E4E8C5E884D8C5E8C5F0C4E883D05DFF98
:104690007AFE25C1C3E0E4E8C4E845E186C1C7B9B4
:1046A000A7B1C7B9A7B9A7B987B9A8C1A8B967B150
:1046B000A8B904C1C4D8E5F0C4E8E4E0E4D87DFFBB
:1046C000FFFFFFFFFFFFFFFFFEE7AA0CE9042A053B
:1046D00009054A054A052A054A052A052A052A0D1B
:1046E0002A0DE90CE90CCA148914A90C2905290D15
:1046F000E90C691473AECAD2E4E8E4E804E145D9F0
:1047000086C9A6B9A7B9A7B9A7B9A7B9A7B9A7C1B3
:10471000C7B1C7B186B966C9A4D0E4E8C4F0E4F073
:10472000C3B855FDBFFFFFFFFFFFFFFFFFFFFFFF08
:10473000FFFFFFFFFFFFFFFFDEFF7DFF49DAC3D072
:1047400004E904E9C3E0E4E805E126C11CFFCFEB7E
:10475000A3C8E4F0C4E8E4F0C4E0E5E0E5D8E5D8B7
:10476000E5D8E5D0E4D804D904D104D105D904D9D9
:1047700004E1E4F0A3E8E4E824E1A3B8BEFFFFFF0E
:10478000FFFFFFFFFFFFFFF76B2CEB140905290567
:104790002905290549052A052A050A052A050905C5
:1047A000CA14F15D3476558654764C25C904EA1452
:1047B000CB4434CE85B9E4E8C3E8E4E8E4E0E4D8E7
:1047C00004D904D9E4D8E4D8E4D8E4D8E5D805D1AC
:1047D00005D105D9E4D8E4E8E4F0E4E0A3D8A7C91A
:1047E0001CFFDFFFDFFFFFFFFFFFFFFFFFFFFFFFFC
:1047F000FFFFFFFFFFFFFFFFBEFF55FD03B9E4E032
:10480000C3D824E904E1E4C02DD379FEA6B905D9C3
:10481000C4E8E5E8C4E004E1C4E805E9C4E0E5E093
:1048200005E9E4E8E4E804E1E4E0E4E8E4E8E4E8F5
:10483000C4E005E905D9C3B869C2BEFFFFFFFFFFA9
:10484000FFFFFFFFFFFF59AF8B24CA0C2A0D29057C
:104850004905490549052A052A050A0D8914726E7C
:10486000FED7FEE7FFE7FFDFAA14EA0C891CF18DF3
:10487000D0CC03B9E4E805E905E9C4E005E9E5E0E1
:10488000E4E0E4E8E4E8E4E8E4E0E4E0E5E0E5E0EE
:10489000E5E0E4E0E4E805E9E5C804B9F3FCBEFFBF
:1048A000FFFFFFFFFFFFFFFFFFFFFFFFFFFFFFFF18
:1048B000FFFFFFFFFFFFDFFF7DFFAAC284C8C4D058
:1048C000A3C883C804B138FEAEDBE3A8C3C0A3C845
:1048D000A4D0A4C8C3C8C3C8A3D0C3C8C3C8A3C8EE
:1048E000A3D0A3C8C4C8C3C8C3C8C3C8A3C8A4D0DE
:1048F00084C005B9CBC2FAFEFFFFFFFFFFFFFFFF39
:10490000FFFFFFFFFFEF7AB7EE448A14E90C490579
:10491000490529052905E90CA914B596FEE7FFF715
:10492000FFF7FFEFFEDFCA0C0A0DAA3418EF279A33
:10493000E4B0C4C8A4C8A4C8A4D0A4D0A4D0A3D0B0
:10494000C3C8C3C8C3C8C3C8C3C8C3C8C3C8A3C82F
:10495000A3C8C4C8C4C8A7B9B2EC9DFFDFFFFFFF5E
:10496000FFFFFFFFFFFFFFFFFFFFFFFFFFFFFFFF57
:10497000FFFFFFFFFFFFBEFF38FED0FBAFFBF0FBEA
:104980006EF3B3F4BEFF91E4CEEBF0FBD0FBB0FBD3
:10499000D0FBCFFBCFFBCFFBCFFBCFF3CFFBAFFBEE
:1049A000B0FBD0F3CFF3CFF3CFF3CFFBB0FB32FCB0
:1049B000B7FD5DFFDDFFFFFFFFFFFFFF7DEFBEEFF8
:1049C000FFF7FFF7FFF7FDDFB5866E45A9148914E1
:1049D0008914CA24CB2C326EFEEFFEF7FFFFFEEFE8
:1049E000FEE712760B156914D4961AFF10DCF0EB73
:1049F000CFF3AFFBAFFBAFFBAFFBAFFBAFFBCFFB2F
:104A0000CFF3CFF3CFF3CFFBAFFBAFFBCFFBF0FB8D
:104A1000AFF3B0F37AFEBDFFDEFFFFFFFFFFFFFF46
:104A2000FFFFFFFFFFFFFFFFFFFFFFFFFFFFFFFF96
:104A3000FFFFFFFFFFFFDFFF9EFF9EFF9DFFBEFF0B
:104A4000BFFFDFFFBEFFBEFF7DFF9EFF9FFF9FFFFB
:104A50009EFF9EFF9EFF9EFF9EFF9DFF9EFF9FFF6E
:104A60009FFF9EFFBEFFBEFFBEFF9EFF7EFF5DFF5E
:104A7000BFFFFFFFDFFFFFFFFFFFFEF73BCFBDDF05
:104A8000FFFFFFFFFFF7FEEFFEE738AFF7A6F8AE38
:104A90009ABFFEE7FFE7FFFFFFFFFEF7FEE7937E0B
:104AA0006914690C7165FEEFFEFF9EFF9EFF9EFF7D
:104AB0009EFF9EFF9EFF9EFF9EFF9EFF9EFF9EFF0E
:104AC0009EFF9EFF9EFF9EFF9DFF9DFFBDFFBDFFC2
:104AD000BEFF9EFFDFFFFFFFFFFFFFFFFFFFFFFFA8
:104AE000FFFFFFFFFFFFFFFFFFFFFFFFFFFFFFFFD6
:104AF000FFFFFFFFFFFFFEFFFFFFFFFFFFFFFFFFC7
:104B0000FFFFFFFFFFFFDFFFFFFFFFFFFFFFFFFFD5
:104B1000FFFFFFFFFFFFFFFFFFFFFFFFFFFFFFFFA5
:104B2000FFFFFFFFFFFFFFFFFFFFFFFFFFFFDFFFB5
:104B3000FFFFDFFFFFFFDFFFFFFFFEE737AEFFF7FF
:104B4000FFF7FFF7FFFFFFFFFFF7FFF7FFF7FFFF9D
:104B5000FFFFFFFFFFF7FEE7FDDF11766914CA14C0
:104B6000704DFEDFFFF7FFFFFFFFFFFFFFFFFFFFBF
:104B7000FFFFFFFFFFFFFFFFFFFFFFFFFFFFFFFF45
:104B8000FFFFFFFFFFFFFFFFFEFFFFFFFFFFFFFF36
:104B9000FFFFFFFFFFFFFFFFFFFFFFFFFFFFFFFF25
:104BA000FFFFFFFFFFFFFFFFFFFFFFFFFFFFDFFF35
:104BB000DFFFFFFFFFFFFFFFFFFFDFFFFFFFDFFF65
:104BC000FFFFFFFFFFFFFFFFDFFFFFFFFFFFFFFF15
:104BD000FFFFFFFFFFFFFFFFFFFFFFFFFFFFFFFFE5
:104BE000FFFFFFFFFFFFFFFFFFFFFFFFFFFFFFFFD5
:104BF000FFFFFFFFFFFFFFFFFFFFFFF7359EFDD722
:104C0000FFE7FFF7FFFFFFFFFFFFFFFFFFFFFFFFD4
:104C1000FFF7FEDF98A74D456814A90C8A1CFEDF3C
:104C2000FFF7FFFFFFFFFFFFFFFFFFFFFFFFFFFF9C
:104C3000FFFFFFFFFFFFFFFFFFFFFFFFFFFFFFFF84
:104C4000FFFFFFFFFFFFFFFFFFFFFFFFFFFFDFFF94
:104C5000DFFFFFFFFFFFFFFFFFFFFFFFFFFFFFFF84
:104C6000FFFFFFFFFFFFFFFFFFFFFFFFFFFFFFFF54
:104C7000FFFFFFFFFFFFDFFFFFFFFFFFFFFFFFFF64
:104C8000DFFFFFFFFFFFFFFFFFFFFFFFFFFFFFFF54
:104C9000FFFFFFFFFFFFFFFFFFFFFFFFFFFFFFFF24
:104CA000FFFFFFFFFFFFFFFFFFFFFFFFFFFFDFFF34
:104CB000FFFFFFFFFFFFFFFFFEF797A6F06CB48535
:104CC0009CD7FFEFFFEFFFEFFFEFFFEFFEE7FDD712
:104CD0008F5D6A24891C891CAA24B47EFFEFFFFF24
:104CE000FFFFFFFFFFFFFFFFFFFFFFFFFFFFFFFFD4
:104CF000FFFFFFFFFFFFFFFFFFFFFFFFFFFFFFFFC4
:104D0000FFFFFFFFFFFFFFFFFFFFFFFFFFFFFFFFB3
:104D1000FFFFFFFFFFFFFFFFFFFFFFFFFFFFFFFFA3
:104D2000FFFFFFFFFFFFFFFFFFFFFFFFFFFFFFFF93
:104D3000FFFFFFFFFFFFFFFFFFFFFFFFFFFFFFFF83
:104D4000FFFFDFFFFFFFFFFFFFFFFFFFFFFFFFFF93
:104D5000FFFFFFFFFFFFFFFFFFFFFFFFFFFFFFFF63
:104D6000FFFFFFFFFFFFFFFFFFFFFFFFFFFFFFFF53
:104D7000FFFFFFFFFFFFFFFFFFF7DDD7F4854D4C7F
:104D8000AD4C7376B37693765166AE4DCB246914F1
:104D900069246A2C906DDBCFFEEFFFFFFFFFFFFF62
:104DA000FFFFFFFFFFFFFFFFFFFFFFFFFFFFFFFF13
:104DB000FFFFFFFFFFFFFFFFFFFFFFFFFFFFFFFF03
:104DC000FFFFFFFFFFFFFFFFFFFFFFFFFFFFFFFFF3
:104DD000FFFFFFFFFFFFFFFFFFFFFFFFFFFFFFFFE3
:104DE000FFFFFFFFFFFFFFFFFFFFFFFFDFFFFEFFF4
:104DF000FFFFDFFFFFFFFFFFFFFFFFFFFFFFFFFFE3
:104E0000FFFFFFFFFFFFFFFFFFFFFFFFFFFFFFFFB2
:104E1000FFFFFFFFFFFFFFFFFFFFFFFFFFFFFFFFA2
:104E2000FFFFFFFFFFFFFFFFFFFFFFFFFFFFFFFF92
:104E3000FFFFFFFFFFFFFFFFFFF7FEE7FDCFF69647
:104E40008B2C4A2C292C4924491C8A1C8F4DB48652
:104E5000FBC7FEEFFFFFFFFFFFFFFFFFFFFFFFFFAF
:104E6000FFFFFFFFFFFFFFFFFFFFFFFFFFFFFFFF52
:104E7000FFFFFFFFFFFFFFFFFFFFFFFFFFFFFFFF42
:104E8000FFFFFFFFFFFFFFFFFFFFFFFFFFFFFFFF32
:104E9000FFFFFFFFFFFFFFFFFFFFFFFFFFFFFFFF22
:104EA000FFFFFFFFFFFFFFFFFFFFFFFFFFFFFFFF12
:104EB000FFFFFFFFFFFFFFFFFFFFFFFFFFFFFFFF02
:104EC000FFFFFFFFFFFFFFFFFFFFFFFFFFFFFFFFF2
:104ED000FFFFFFFFFFFFFFFFFFFFFFFFFFFFFFFFE2
:104EE000FFFFFFFFFFFFFFFFFFFFFFFFFFFFFFFFD2
:104EF000FFFFFFFFFFFFFFFFFFF7FFF7FFEFFEE7FB
:104F0000BCD75AC75AC75AC7BCD7FEEFFFEFFFF747
:104F1000FFFFFFFFFFFFFFFFFFFFFFFFFFFFFFFFA1
:104F2000FFFFFFFFFFFFFFFFFFFFFFFFFFFFFFFF91
:104F3000FFFFFFFFFFFFFFFFFFFFFFFFFFFFFFFF81
:104F4000FFFFFFFFFFFFFFFFFFFFFFFFFFFFFFFF71
:104F5000FFFFFFFFFFFFFFFFFFFFFFFFFFFFFFFF61
:104F6000FFFFFFFFFFFFFFFFFFFFFFFFFFFFFFFF51
:104F7000FFFFFFFFFFFFFFFFFFFFFFFFFFFFFFFF41
:104F8000FFFFFFFFFFFFFFFFFFFFFFFFFFFFFFFF31
:104F9000FFFFFFFFFFFFFFFFFFFFFFFFFFFFFFFF21
:104FA000FFFFFFFFFFFFFFFFFFFFFFFFFFFFFFFF11
:104FB000FFFFFFFFFFFFFFFFFFFFFFFFFFFFFFFF01
:104FC000FFFFFFFFFFFFDFFFFFFFFFFFFFFFFFFF11
:104FD000FFFFFFFFFFFFFFFFFFFFFFFFFFFFFFFFE1
:104FE000FFFFFFFFFFFFFFFFFFFFFFFFFFFFFFFFD1
:104FF000FFFFFFFFFFFFFFFFFFFFFFFFFFFFFFFFC1
:10500000FFFFFFFFFFFFFFFFFFFFFFFFFFFFFFFFB0
:10501000FFFFFFFFFFFFFFFFFFFFFFFFFFFFFFFFA0
:10502000FFFFFFFFFFFFFFFFFFFFFFFFFFFFFFFF90
:10503000FFFFFFFFFFFFFFFFFFFFFFFFFFFFFFFF80
:10504000FFFFFFFFFFFFFFFFFFFFFFFFFFFFFFFF70
:10505000FFFFFFFFFFFFFFFFFFFFFFFFFFFFFFFF60
:10506000FFFFFFFFFFFFFFFFFFFFFFFFFFFFFFFF50
:10507000FFFFFFFFFFFFFFFFFFFFFFFFFFFFFFFF40
:10508000FFFFFFFFFFFFFFFFFFFFFFFFFFFFFFFF30
:10509000FFFFFFFFFFFFFFFFFFFFFFFFFFFFFFFF20
:1050A000FFFFFFFFFFFFFFFFFFFFFFFFFFFFFFFF10
:1050B000FFFFFFFFFFFFFFFFFFFFFFFFFFFFFFFF00
:1050C000FFFFFFFFFFFFFFFFFFFFFFFFFFFFFFFFF0
:1050D000FFFFFFFFFFFFFFFFFFFFFFFFFFFFFFFFE0
:1050E000FFFFFFFFFFFFFFFFFFFFFFFFFFFFFFFFD0
:1050F000FFFFFFFFFFFFFFFFFFFFFFFFFFFFFFFFC0
:10510000FFFFFFFFFFFFFFFFFFFFFFFFFFFFFFFFAF
:10511000FFFFFFFFFFFFFFFFFFFFFFFFFFFFFFFF9F
:10512000FFFFFFFFFFFFFFFFFFFFFFFFFFFFFFFF8F
:10513000FFFFFFFFFFFFFFFFFFFFFFFFFFFFFFFF7F
:10514000FFFFFFFFFFFFFFFFFFFFFFFFFFFFFFFF6F
:10515000FFFFFFFFFFFFFFFFFFFFFFFFFFFFFFFF5F
:10516000FFFFFFFFFFFFFFFFFFFFFFFFFFFFFFFF4F
:10517000FFFFFFFFFFFFFFFFFFFFFFFFFFFFFFFF3F
:10518000FFFFFFFFFFFFFFFFFFFFFFFFFFFFFFFF2F
:10519000FFFFC0A8010AC0A80101FFFFFF00C0A8CF
:1051A00001010808080400000000000000000000E1
:1051B00000000000000000000000000000000000EF
:1051C00000000000000000000000000000000000DF
:1051D0006C150020002000000A6419001400002053
:1051E0006C3500200A96040200000000F83500200B
:1051F00002000000103600200705280002001400FD
:105200000A007800B4050700000000000000FFFF5E
:10521000FFFF7F000001000493E000060000FFFF95
:10522000FFFFFFFF44520008000000206C15000043
:105230004A110008F05900086C150020444900008C
:10524000DC110008B0080000C0A8011500016009C9
:1052500073746D3332313063100008131E306CA24A
:10526000455E0001000431FFFF00010316800102CA
:10527000611EE16892CC02012A6A23600C02200FB1
:1052800030063006FE1FFE1F3006380718030A20BE
:1052900007180318038C01023172201700E003F88D
:1052A0000F9C0E8C1C8C188C009800F801E0078075
:1052B0000E800E100B189C18B80CF00FE00380261F
:1052C000A15A10090E181B0C110C11060210110323
:1052D00011039B018E01C038C06C604460443002F1
:1052E00064071844186C0C38261005E001F0037AA6
:1052F00010140618063003F001F000F8009C310E7F
:1053000033061E061C02E0063FFC73F021B8920C27
:10531000020121E7100B0200038001C000C0006001
:1053200002D230022114211C155E12032A151632F6
:1053300020123570120302D20602111425A2214E4A
:10534000D6208821481008D806F807E00130D20599
:105350002AEAC405FC3FFC3FE8092C301200020297
:105360001B806C080532E007E0078E41D6F57F759B
:105370000C155C351045624564D17AE00A03F007EC
:10538000380E180C0C1802D409180C380EF007E06F
:1053900003B0214C0C071901F0019801880803A102
:1053A0006043F80F5E220002219C35F025ECD00707
:1053B0001800FC1FFC1F90100701F807180E0C01C5
:1053C00021C81805C003C00751113C41920210F8D2
:1053D000904C0B0C000E000F000F800DC03003111D
:1053E0006B270C0CB209148513F80F903189300922
:1053F000EC03FC071C0E001C98115E0005101C0C31
:10540000180E602009C007F00F381C181832540914
:10541000CC03EC0F3C0E1C1C2006121C2031D24584
:1054200082357C16C07A3AE0C85A70DE05148021B5
:105430005384073806F007F0078CE005380CF80FA6
:10544000604130521C2430091C1C381EF81BE01926
:10545000D1130C1CC00B1BF0018A012114011F3059
:10546000091ACE1C0510001C80720416F8DC1AF80C
:105470005C17800F600A1810F8C3F81F080D1E147F
:1054800005180708003800F00114121F61161F9C50
:1054900013013814091770796E6D2603FD2E033D34
:1054A0007C03400C18180420C229224A1144090226
:1054B000EC0C221113E20C0240042018189803157A
:1054C000D4200403C00602396E2218022C07F83FCC
:1054D000F83F1C70AF052119D9106C0503FC0F0CA7
:1054E0005E0310040CFC070E1A18A541021E1800DA
:1054F00003FA0770BC0A1F38381C300C700660DDD8
:1055000004E008600C701C30F01F903C08FE03FEA5
:105510000F060E06A105B1022DB305E8050EFE0F1C
:10552000FEA01DCC048DA20529AEADB0053D38030B
:10553000C5A211DC4DBB032D27038005F81FF81F02
:105540000E4DD303DDCA043C0C0FF83F3C780E60CF
:1055500006E007C0810411A11DC5031533DC090E47
:10556000C03CF0F83FE00FBF03A23002319EB11201
:105570000F260C3080070D15A005021406022531F8
:10558000DC063807F003E0B004353A10140C0606C8
:1055900006038601C60066007600DE008E01060363
:1055A00012360C64DD4105021B18022530CD2103A3
:1055B00020050EE01EF0024336D8022366CC0252CC
:1055C000C601E40586C386C32010041C303C0212C9
:1055D0006C0212CC0210058C310C3302123602120E
:1055E0003C02E638201C05E007F81F9904193EA389
:1055F00003C002F80806600E701C38F8401BFC0F50
:1056000002CA38920E190CC407916082E05E140938
:1056100007E006630E3F1C3CE0CEF7910619825866
:10562000041F06389C1E38C00876074C49B20E107D
:105630006030065DDE041D9B051BF80330331E0041
:10564000401C050E301C1C1005ED000308042A7FC9
:10565000FE7F10E95EA97E0710181820430360BC86
:105660006D14072D16072D94091405700760036348
:105670001DE005E13023C3610283663302236C1B06
:1056800002CC092C1A3C1E380E380E31051C090FAD
:10569000E00C70183030183F043C040EC0075E0464
:1056A000140503E00670F71D8107D006300E600771
:1056B000E0602D79044C08301C383818300C650334
:1056C0000D1C80075C05FC7FFC7F6D07DD7C072DD2
:1056D0002708253EED10082FE003AE06011E02212B
:1056E000282DA60A6DA6094DA8091D64096D0E0B8B
:1056F0007E03A009F1600221000261601D82071D86
:105700004407256C3F6003D7042919013901CFFFF5
:10571000FFF80B0D2DAE0A9D4A081805F003F80797
:10572000AA2C070C000FF00FF8B1081F0C1C5C0826
:105730000F16F01820041ED8A80B1E383708810158
:105740002DE0070F17D803DA091D9A096F300E39BB
:10575000092DA3081E309009EEC00009711F28050D
:10576000C01BF01F368160000719301CF01FC01BE2
:10577000601E0F83066E18D4051952EC051CF00F3D
:10578000C0F00644040FC00FDA2D9C0855E4B102A6
:105790000D17D40A1E0DFA093DCA0961011D6009E1
:1057A00024050FE00D002A6E06AA0895204F07F881
:1057B0006A09D1010D16F00A0215C002012E30410E
:1057C000DEEC04F80078BE0C1C050C0C060C6A0D0F
:1057D000100DCC006C00FC009C018C030C03120E1D
:1057E000100C560C011C020D169009E0097C3CFFC0
:1057F0007EC7E383C1020D16EA0B0623982005102D
:10580000E099101D0E0E0A17C0700916A00D16EAB9
:10581000070917700D151B081EB06E07FE70E20D0C
:105820000E1830140D1E037A0E1D1A0B1DF2093DC1
:10583000060C0D15900C1D020F0919A00F170780FB
:10584000EA0D09106A1238C01D4C0B0D15DB0A4D0C
:10585000FE053E18920F1DB7060E140300068DF8C4
:105860000F3008C141C141C3616301323601321CAE
:10587000010D16F00F3E1CF70952605A1D5E061D01
:1058800075061E38E10B0117C01D36061D38062EA1
:105890001828102FE00C940A2D3E064DF00D1DA285
:1058A0000D1D700C0D159A0C0D1B800D8D300B8D80
:1058B000320E2DE205BA40D63D900F0D259009CD50
:1058C00022119E6024069DC60FB3030048FEC0A8A7
:1058D0000E5D740500075110F81F080F0001600DE0
:1058E000C003300C081004200420024002210E0CDA
:1058F00005120810300C34032D3E052FF81F1A1026
:105900002D82084102210E0F18F81F64031EE04C7F
:105910000EA9700F1CF00FF60F21302D9E056102AD
:10592000011E30ADBC103AC04021660D10840A0142
:105930001430A16E0D10A80D1D24063D42041DE378
:105940000C0E20030411A1B20122307D6C121D58EF
:105950001010048C018602128C0A00051EF001E072
:1059600001301006F801FC01FE0212FC0A011E3093
:10597000100B8007800F8019803180610212310A7C
:1059800000041F0F80073010061F803F807F021227
:105990003F0A0111301805C001200233B005013063
:1059A0000608012116E1024DCE082D62091D4211A3
:1059B000A00407D80D027DF60391020112602304B2
:1059C00010593240164310041211026C0420044096
:1059D0002E09C1604C07CC19C631C26142091F7043
:1059E0000680084D3A101D69040D2A460300000088
:04000005080001519D
:00000001FF
