:020000040800F2
:10000000081C0020390200084102000843020008D1
:1000100045020008470200084902000800000000ED
:100020000000000000000000000000004B0200087B
:100030004D020008000000004F02000851020008B5
:10004000530200085302000853020008530200083C
:10005000530200085302000853020008530200082C
:10006000530200085302000853020008530200081C
:10007000530200085302000853020008530200080C
:1000800053020008530200085302000853020008FC
:1000900053020008530200085302000853020008EC
:1000A00053020008530200085302000853020008DC
:1000B00053020008530200085302000853020008CC
:1000C00053020008530200085302000853020008BC
:1000D000530200089D100008351100085302000863
:1000E00053020008530200085302000800000000F9
:1000F0000000000000000000000000000000000000
:100100000000000000000000530200085302000835
:10011000530200085302000853020008530200086B
:10012000530200085302000853020008530200085B
:10013000530200085302000853020008530200084B
:10014000530200085302000853020008530200083B
:1001500000F002F800F060F80AA090E8000C824479
:100160008344AAF10107DA4501D100F055F8AFF256
:10017000090EBAE80F0013F0010F18BFFB1A43F085
:1001800001031847BC330000DC33000010F8013BCA
:100190000A4413F0030408BF10F8014B1D1108BFF7
:1001A00010F8015B641E05D010F8016B641E01F8A5
:1001B000016BF9D1002D15D010F8014B03F00C03A1
:1001C0000C2BA1EB04040ABF10F8013BA4EB831431
:1001D000A4EB032405F1010314F8016B5B1E01F885
:1001E000016BF9D5914238BF10F8013BD1D370476C
:1001F0000023002400250026103A28BF78C1FBD830
:10020000520728BF30C148BF0B6070471FB501F0CF
:1002100092FC1FBD10B510BD01F053FC1146FFF755
:10022000F5FF00F0EFFE01F071FC03B4FFF7F2FF01
:1002300003BC01F079FC00000948804709480047E9
:10024000FEE7FEE7FEE7FEE7FEE7FEE7FEE7FEE786
:10025000FEE7FEE704480549054A064B70470000E3
:10026000F91200085101000808160020081C00209F
:10027000081800200818002031490143314A116054
:10028000704770B5002100230F22C4780CB32D4CA9
:10029000246804F4E064C4F5E064210AC1F10403B5
:1002A000CA40447804FA03F18478144021430901D8
:1002B000254C0678A155047804F01F050124AC40B4
:1002C00005786D114FF0E02606EB8505C5F8004175
:1002D00009E0047804F01F050124AC401B4D0678AA
:1002E000761145F8264070BD194A0A400243154B65
:1002F0001B1F1A60704739B1124A121D126802435F
:10030000104B1B1D1A6006E00E4A121D1268824334
:100310000C4B1B1D1A607047042808D14FF0E021D8
:10032000096941F004014FF0E022116107E04FF04C
:10033000E021096921F004014FF0E02211617047CA
:100340000000FA050CED00E000E400E080E100E0D0
:1003500080FFFF1F10B50446CA48844208D101211E
:10036000042000F0E5FB0021042000F0E1FB46E062
:10037000C548844208D10121082000F0D9FB0021A2
:10038000082000F0D5FB3AE0C048844208D10121A2
:10039000102000F0CDFB0021102000F0C9FB2EE062
:1003A000BB48844208D10121202000F0C1FB00217C
:1003B000202000F0BDFB22E0B648844208D1012194
:1003C000402000F0B5FB0021402000F0B1FB16E01A
:1003D000B148844208D10121802000F0A9FB00210E
:1003E000802000F0A5FB0AE0AC48844207D101213F
:1003F000801500F09DFB0021A01500F099FB10BDB9
:1004000010B50121084600F093FB0021012000F007
:100410008FFB10BD2DE9F04102460025002600208B
:1004200000230024002791F803C00CF00F0591F879
:1004300003C01CF0100F03D091F802C04CEA050570
:10044000B1F800C01CF0FF0F31D0146800202BE081
:100450004FF0010C0CFA00F3B1F800C00CEA0306EF
:100460009E4220D183004FF00F0C0CFA03F7BC43DF
:1004700005FA03FC4CEA040491F803C0BCF1280F10
:1004800006D14FF0010C0CFA00FCC2F814C00AE0CF
:1004900091F803C0BCF1480F05D14FF0010C0CFAE4
:1004A00000FCC2F810C0401C0828D1D31460B1F879
:1004B00000C0BCF1FF0F34DD546800202EE000F1D5
:1004C000080C4FF0010808FA0CF3B1F800C00CEA70
:1004D00003069E4221D183004FF00F0C0CFA03F764
:1004E000BC4305FA03FC4CEA040491F803C0BCF1D8
:1004F000280F05D100F1080C08FA0CF8C2F8148096
:1005000091F803C0BCF1480F07D100F1080C4FF07F
:10051000010808FA0CF8C2F81080401C0828CED355
:100520005460BDE8F0814FF6FF71018002218170B7
:100530000421C17070470246002093680B4201D02D
:10054000012000E0002070470146886880B27047B3
:1005500002460020D3680B4201D0012000E00020B9
:1005600070470146C86880B27047016170474161B9
:1005700070470AB1016100E041617047C160704796
:100580004FF480320A4382618161826182698269AB
:10059000704702460020424B18684FF6807318409F
:1005A00040EA021008433E4B186070473D49C8615D
:1005B0007047F0B50A46002300240021002500F012
:1005C0000046B6F1004F02D1354EF16901E0344EDC
:1005D0007168C0F3034583B200F44016B6F5401FBE
:1005E00008D121F070612E4E766826F070662C4F8F
:1005F0007E6012E000F48016B6F5801F06D1032657
:1006000006FA05F4A14341F0706106E0460D36019B
:1006100003FA06F6B14341F0706122B1460D36018E
:1006200003FA06F6314300F00046B6F1004F02D15E
:100630001B4EF16101E01A4E7160F0BD30B5002231
:100640008B071C0F0F2303FA04F2154B08338C1091
:1006500053F824309343124C08348D1044F825305D
:1006600023468C1053F824308C07240F00FA04F42E
:1006700023430B4C08348D1044F8253030BD0A4913
:100680000860704700080140000C01400010014064
:100690000014014000180140001C014000200140EE
:1006A0000000014000002042DC002042F8480068C1
:1006B00040F00100F649086008464068F5490840E6
:1006C000F349486008460068F3490840F04908606B
:1006D0000846006820F4802008600846406820F43E
:1006E000FE0048600846006820F0A05008604FF403
:1006F0007F0088600020C8627047E549096821F4DE
:100700008031E34A11601146096821F480211160AB
:10071000B0F5803F03D0B0F5802F0ED106E0DC4964
:10072000096841F48031DA4A116007E0D849096864
:1007300041F4A021D64A116000E000BF00BF70471D
:1007400010B501460022002300204A11012A02D1DF
:10075000CF4C236806E0022A02D1CD4C236A01E087
:10076000CB4C636A01F01F02012494401C4201D06B
:10077000012000E0002010BD70B5002400250026F7
:1007800000BF3120FFF7DCFF0646641CB4F5A06F04
:1007900001D0002EF5D03120FFF7D2FF08B101259E
:1007A00000E00025284670BD01460020B84A1068C8
:1007B00020F0F80040EAC10010607047B7490860B7
:1007C000704702460020B24B586820F4741042EA89
:1007D00001031843AE4B58607047B0490866704734
:1007E00002460020AA4BD86AAD4B184042EA0103EA
:1007F0001843A74BD862704701460020A44AD06A2C
:1008000020F0F0000843D062704701460020A04A63
:10081000D06A20F470600843D06270479F498866B0
:100820007047014600209A4AD06A20F4704008437D
:10083000D062704799490867704701460020944A82
:10084000506820F0030008435060704790484068AB
:1008500000F00C007047014600208D4A506820F0DF
:10086000F00008435060704701460020884A5068F5
:1008700020F4E06008435060704701460020844A3D
:10088000506820F4605040EAC1005060704729B1C0
:100890007F4A527A02437E4B5A7206E07C4A527A71
:1008A000C343DBB21A407A4B5A7270477D490860E5
:1008B000704701460020764A506820F440400843C3
:1008C000506070477849086070477749091D086093
:1008D00070470021754A11706D4A82F82010012876
:1008E00002D0042808D103E00121704A117004E00D
:1008F00005216E4A117000E000BF00BF70476C49CF
:10090000086070476249096A0143614A1162704791
:1009100067494439086070472DE9F0410021002201
:10092000002500230026002400278C46DFF8608184
:10093000D8F8048008F00C0121B1042907D0082957
:1009400059D109E0DFF86C81C0F8008058E0DFF889
:100950006881C0F8008053E0DFF83481D8F8048063
:1009600008F47012DFF82881D8F8048008F4803584
:10097000920C0D2A01D0921C00E0062235B9DFF856
:100980003C8102FB08F8C0F8008033E0DFF800810A
:10099000D8F82C8008F48036DFF8F480D8F82C8062
:1009A00008F00F0808F1010446B9DFF80C81B8FB24
:1009B000F4F808FB02F8C0F800801BE0DFF8D080F4
:1009C000D8F82C80C8F3031808F10107DFF8C080BD
:1009D000D8F82C80C8F3032808F1020CDFF8D8807F
:1009E000B8FBF7F808FB0CF8B8FBF4F808FB02F8C2
:1009F000C0F8008004E0DFF8BC80C0F8008000BFD1
:100A000000BFDFF88C80D8F8048008F0F0010909F5
:100A1000DFF8AC8018F80130D0F8008028FA03F82D
:100A2000C0F80480DFF86880D8F8048008F4E0613A
:100A3000090ADFF88C8018F80130D0F8048028FA11
:100A400003F8C0F80880DFF84880D8F8048008F47C
:100A50006051C90ADFF8688018F80130D0F80480C6
:100A600028FA03F8C0F80C80DFF82480D8F8048056
:100A700008F44041890BDFF84C8018F80130D0F8B9
:100A80000C80B8FBF3F8C0F81080BDE8F0810000DE
:100A9000001002400000FFF0FFFFF6FE000042429F
:100AA000F0FFFEFFD8004242C4054242201002403F
:100AB0008004424200127A0040787D0100093D0026
:100AC000000000201000002029B1354A526902437D
:100AD000334B5A6104E0324A52698243304B5A61C7
:100AE000704729B12E4A926902432D4B9A6104E066
:100AF0002B4A926982432A4B9A61704729B1284A4E
:100B0000D2690243264BDA6104E0254AD269824366
:100B1000234BDA61704729B1214A926A0243204B84
:100B20009A6204E01E4A926A82431D4B9A627047A1
:100B300029B11B4AD2680243194BDA6004E0184A13
:100B4000D2688243164BDA60704729B1144A1269A1
:100B50000243134B1A6104E0114A12698243104B9D
:100B60001A6170470F49086070470F49C8647047A1
:100B70000B49C87170470A48406A40F080700849C4
:100B80004862704701460020054A92680A4201D037
:100B9000012000E000207047014988727047000082
:100BA00000100240400442420000424210B5044698
:100BB000FC48844209D101218803FFF7B9FF0021D5
:100BC0004FF48040FFF7B4FF32E0F748844209D188
:100BD00001214804FFF7B9FF00214FF40030FFF76F
:100BE000B4FF25E0F148844209D101218804FFF7D0
:100BF000ACFF00214FF48020FFF7A7FF18E0EC487E
:100C0000844209D10121C804FFF79FFF00214FF45E
:100C10000020FFF79AFF0BE0E648844208D101214B
:100C20000805FFF792FF00214FF48010FFF78DFFBA
:100C300010BD2DE9F04786B005460E460024A246B9
:100C400000BFA1460027B08900B100BF2F462C8A03
:100C50004CF6FF700440F08804432C82AC894EF6B9
:100C6000F3100440B0883189084371890843044374
:100C7000AC81AC8A4FF6FF400440B0890443AC829B
:100C800001A8FFF749FEC748874202D1DDF810A04E
:100C900001E0DDF80CA0A88910F4004F08D00AEBA1
:100CA000CA0000EB0A1031684900B0FBF1F807E018
:100CB0000AEBCA0000EB0A1031688900B0FBF1F8BA
:100CC0006420B8FBF0F004012009642101FB1089C5
:100CD000A88910F4004F08D0322000EBC900B0FB07
:100CE000F1F000F00700044308E0322000EB0910A7
:100CF0006421B0FBF1F000F00F0004432C8106B03A
:100D0000BDE8F0874FF41651016000218180C18059
:100D100001810C21418100218181704710B502467B
:100D20000020108A4FF2FF0318400B884C882343A1
:100D30008C882343CC8823431843108210BD0021A4
:100D4000018041808180C180704721B1828942F455
:100D50000052828104E082894DF6FF731A4082813D
:100D60007047F0B503460024002600250020A1F5B9
:100D700010676A3F00D100BF1846C1F3421401F06A
:100D80001F06012707FA06F5012C01D10C3004E0FB
:100D9000022C01D1103000E014301AB107682F4343
:100DA000076002E00768AF430760F0BD10B51AB1F5
:100DB000838A0B43838204E0838ACC43A4B223401A
:100DC000838210BD028A4FF6F0731A400282028AB3
:100DD0000A430282704782894FF2FF731A40828170
:100DE00082890A438281704721B1828942F00202DE
:100DF000828104E082894FF6FD731A408281704738
:100E0000028A4FF6DF731A400282028A0A43028284
:100E1000704721B1028A42F48042028204E0028AD1
:100E20004BF6FF731A4002827047C1F308028280BA
:100E3000704701468888C0F308007047818941F0F7
:100E4000010181817047028BD2B20283028B42EA98
:100E5000012202837047028B02F47F420283028BDD
:100E60000A430283704721B1828A42F020028282C3
:100E700004E0828A4FF6DF731A408282704721B104
:100E8000828A42F01002828204E0828A4FF6EF7377
:100E90001A408282704721B1828A42F0080282821F
:100EA00004E0828A4FF6F7731A408282704721B1BC
:100EB000828942F40042828103E08289C2F30E02F9
:100EC0008281704721B1828A42F40062828204E00A
:100ED000828A4FF2FF731A4082827047828A4FF6ED
:100EE000FB731A408282828A0A438282704721B150
:100EF000828A42F00202828204E0828A4FF6FD7307
:100F00001A408282704702460020B1F5007F00D16E
:100F100000BF13880B4201D0012000E00020704781
:100F200001F40072B2F5007F00D100BFCA43028015
:100F3000704770B502460024002300250020A1F56B
:100F400010666A3E00D100BFC1F3421501F01F03D5
:100F5000012606FA03F3012D02D19689334006E0FB
:100F6000022D02D1168A334001E0968A33400C12DA
:100F7000012606FA04F41688344013B10CB101209E
:100F800000E0002070BD10B500220023A1F5106420
:100F90006A3C00D100BF0A1201249440A3B2DC4392
:100FA000048010BD0038014000440040004800406B
:100FB000004C00400050004008B500F0D0FB0F206E
:100FC00000F0C9FC0F2000F0C3FC4FF6FF7000F0EA
:100FD000BCFC13A1002000F00EFD16A1482000F07B
:100FE0000AFD19A1602000F006FD1BA1902000F071
:100FF00002FD1D4823235F220A210090052000F0F6
:101000002FFD08BD00F078F900F030FAFFF7D4FFAB
:1010100016A000F0D5FA1BA000F0E7FA00BFFEE72B
:10102000202020202020205642454220436F2E2C95
:101030004C7464004C69626172617279204D616E1A
:101040006167656D656E7400202020202020436557
:101050006E746572000000002020202056657273B7
:10106000696F6E20312E3000441B0008546869738C
:10107000206D73672066726F6D2055534152543155
:101080000A0D000054686973206D73672066726FE3
:101090006D205553415254320A0D000010B540F2F4
:1010A00025514A48FFF745FF48B34848FFF7C1FEBE
:1010B00000F07F0046490880084600884549464AB6
:1010C000128821F8120044480088401C80B242492E
:1010D0000880082801D10020088040480088401C72
:1010E00080B23E490880082804D1002008800120F1
:1010F0003B49087040F225513448FFF744FF10BDCA
:1011000000BF364909880029FBD03249354A128888
:1011100031F8120033490988491C89B2314A1180DB
:10112000082901D1002111802C490988491E2B4A28
:101130001180704710B540F225512B48FFF7F9FE9A
:1011400048B32948FFF775FE00F07F00204908806A
:10115000084600882549264A128821F812002448AA
:101160000088401C80B222490880082801D1002054
:10117000088020480088401C80B21E49088008284A
:1011800004D10020088001201B49087040F225513D
:101190001548FFF7F8FE10BD00BF16490988002961
:1011A000FBD01249154A128831F8120013490988F8
:1011B000491C89B2114A1180082901D100211180EE
:1011C0000C490988491E0B4A1180704700380140BC
:1011D0002C000020881500201E0000202200002086
:1011E0001C00002020000020004400409815002032
:1011F000260000202A0000202400002028000020D3
:10120000002100208D4A126842F480328B4B1A6014
:1012100000BF8A4A126802F40030491C10B9B1F5C7
:10122000A06FF6D1854A126812F4003F01D0012068
:1012300000E0002001285AD1814A126842F01002D1
:101240007F4B1A601A46126822F003021A601A468F
:10125000126842F002021A60784A5268774B5A606C
:101260001A4652685A601A46526842F480625A60BE
:101270001A46D26A734B1A40704BDA621A46D26A27
:10128000714B1A436D4BDA621A46126842F0806263
:101290001A6000BF694A126812F0006FFAD0674AFC
:1012A000526822F47C12654B5A601A46526842F426
:1012B000E8125A601A46126842F080721A6000BF43
:1012C0005E4A126812F0007FFAD05C4A526822F03F
:1012D00003025A4B5A601A46526842F002025A60A0
:1012E00000BF564A526802F00C02082AF9D1704732
:1012F00010B5FFF785FF10BD10B55048006840F0ED
:1013000001004E49086008464068504908404B4972
:101310004860084600684E49084048490860084649
:10132000006820F4802008600846406820F4FE0031
:1013300048600846006820F0A05008604FF47F0025
:1013400088600020C862FFF7D3FF4FF0006041497A
:10135000086010BDF0B50021002000230024002209
:1013600000250026354F7F6807F00C0121B10429C4
:1013700008D008294BD10BE0374FDFF8E0C0CCF89C
:1013800000704AE0364FDFF8D4C0CCF8007044E07B
:101390002A4F7F6807F47010284F7F6807F4803366
:1013A000800C0D2801D0801C00E0062033B92D4FA1
:1013B0004743DFF8A8C0CCF8007027E01F4FFF6A52
:1013C00007F480341D4FFF6A07F00F077A1C44B9F9
:1013D000234FB7FBF2F74743DFF880C0CCF800702B
:1013E00014E0164FFF6AC7F303177D1C134FFF6A03
:1013F000C7F30327BE1C1A4FB7FBF5F77743B7FBBC
:10140000F2F74743DFF854C0CCF8007005E0124F04
:10141000DFF848C0CCF8007000BF00BF074F7F68FE
:10142000C7F30317DFF840C01CF807100B4F3F68E5
:10143000CF40DFF828C0CCF80070F0BD00100240AB
:101440000020024000F0FEFF440601000000FFF013
:10145000FFFFF6FE08ED00E000127A0030000020E9
:1014600040787D0100093D003400002000B587B0C0
:1014700001218803FFF735FB01214804FFF73EFBFC
:1014800001212520FFF72DFB4FF4E060FEF7F4FE6D
:1014900025208DF8180000208DF819008DF81A000D
:1014A00001208DF81B0006A8FEF7EBFE4FF4E0606C
:1014B000FEF7E2FE26208DF8180000208DF81900B6
:1014C0008DF81A0001208DF81B0006A8FEF7D9FE42
:1014D0004FF48060ADF8040004208DF8070001A9E6
:1014E0004C48FEF797FF4FF40070ADF80400182049
:1014F0008DF8070003208DF8060001A94548FEF786
:1015000089FF01210820FFF754F84020ADF80400BE
:1015100004208DF8070001A93F48FEF77BFF20203B
:10152000ADF8040018208DF8070003208DF80600A0
:1015300001A93948FEF76EFF4FF4E1300290002018
:10154000ADF80C00ADF80E00ADF81000ADF81400C9
:101550000C20ADF8120002A93048FFF76AFB4FF4E7
:10156000E13002900020ADF80C00ADF80E00ADF8AF
:101570001000ADF814000C20ADF8120002A92848A4
:10158000FFF757FB012240F225512448FFF7E9FB02
:10159000012240F225512248FFF7E3FB01211F48B9
:1015A000FFF7D3FB01211E48FFF7CFFB40211B486B
:1015B000FFF7B6FC40211A48FFF7B2FC07B000BDA8
:1015C00070B50446002500BF0BE000BF4021134862
:1015D000FFF799FC0028F9D0615D1048FFF725FC62
:1015E0006D1C605D0028F0D170BD70B5044600250B
:1015F00000BF0BE000BF40210948FFF784FC002832
:10160000F9D0615D0648FFF710FC6D1C605D002895
:10161000F0D170BD000801400014014000380140C5
:1016200000440040012107E0012200E0521C42F288
:1016300010739A42FAD3491C8142F5D970474FF48E
:101640000051F94A11604021F84A51614902F64AB5
:1016500011604910121D1160F54908604FF4804176
:10166000121F11604021F14A116170474FF400517F
:10167000ED4A121D11604021EC4A51614902EA4ACB
:1016800011604910121D1160E94908604FF4804152
:10169000121F11604021E54A1161704700204FF090
:1016A0004431E34A083A1160121F11605114DE4AB6
:1016B0001160490011604021DC4A51614902DA4A57
:1016C000121D1160121F1160D949091F096888B2E3
:1016D0004021D64A11614FF03331D54A083A1160A2
:1016E000121F116070472DE9F041D320FFF7BEFFB4
:1016F000FFF7D4FF0546FFF7D1FF0646FFF7CEFF01
:101700000746FFF7CBFF0446BDE8F0812DE9F04125
:1017100004460D4616461F462A20FFF7A7FF200A5B
:10172000FFF78DFFE0B2FFF78AFF280AFFF787FF78
:10173000E8B2FFF784FF2B20FFF798FF300AFFF78E
:101740007EFFF0B2FFF77BFF380AFFF778FFF8B2B1
:10175000FFF775FF2C20FFF789FFBDE8F08110B57A
:10176000B448806940F07D00B24988614FF0333061
:10177000AF490C390860091D0860AC48006820F0CA
:101780007060AA4908600846006840F04070086030
:10179000A5480C380068C0F31300A3490C39086051
:1017A00008460068A44908439F490C390860402056
:1017B0009E4908614FF460409B4908600A20FFF78A
:1017C00031FFFFF790FF1120FFF750FF1420FFF7C4
:1017D00029FFD020FFF74AFF0720FFF730FF412005
:1017E000FFF72DFF1F20FFF72AFFD120FFF73EFF55
:1017F0000020FFF724FF2C20FFF721FF1A20FFF71E
:101800001EFFD220FFF732FF0120FFF718FF112043
:10181000FFF715FFC020FFF729FF0020FFF70FFF9C
:101820003B20FFF70CFF0020FFF709FF0220FFF726
:1018300006FF1120FFF703FFC520FFF717FF022067
:10184000FFF7FDFEC820FFF711FF0720FFF7F7FEA7
:101850000720FFF7F4FE0720FFF7F1FE5020FFF707
:10186000EEFE0820FFF7EBFE0020FFF7E8FE072062
:10187000FFF7E5FE0720FFF7E2FE0720FFF7DFFE98
:101880000520FFF7DCFE0220FFF7D9FE0620FFF758
:10189000D6FE3620FFF7EAFEE820FFF7D0FE3A201A
:1018A000FFF7E4FE5520FFF7CAFEF020FFF7DEFE4B
:1018B0000120FFF7C4FEF320FFF7D8FE4020FFF71A
:1018C000BEFE0A20FFF7BBFE2A20FFF7CFFE002056
:1018D000FFF7B5FE0020FFF7B2FE0120FFF7AFFED5
:1018E0003F20FFF7ACFE2B20FFF7C0FE0020FFF7E4
:1018F000A6FE0020FFF7A3FE0120FFF7A0FEDF20D9
:10190000FFF79DFE7820FFF78DFE2920FFF7AEFE42
:101910002C20FFF7ABFE0520FFF784FE10BD70B54D
:1019200005460C462346224629462846FFF7EEFE8A
:1019300070BD70B504460D46A9B2A0B2FFF7EFFF27
:101940003E480088FFF77BFE70BD3C490880704729
:101950003B490880704770B50546F02300224FF4DC
:10196000A0711046FFF7D2FE002403E02846FFF7DF
:1019700066FE641CB4F5963FF8D370BD2DE9F041C6
:1019800004460D4690460026002704F1170083B256
:10199000A2B205F10F0081B2A8B2FFF7B7FE00BFF7
:1019A00014E000270FE038F816000121B940084282
:1019B00004D123480088FFF742FE03E01F48008857
:1019C000FFF73DFE7F1C102FEDDB761C182EE8D3B1
:1019D000BDE8F08170B505460E461446A4F120001E
:1019E000C4B204EB4400174901EB0012314628460B
:1019F000FFF7C4FF70BD2DE9F04107460C460025F6
:101A0000002607E0227831463846FFF7E3FF10361C
:101A1000641C6D1C207808B1012000E00020142D0A
:101A200012D2012111E00000101401400010014009
:101A30000C18014000100240000030334415002013
:101A4000461500204400002000210842DAD1BDE8FC
:101A5000F08110B5044613A12046FFF7CCFF10BD5E
:101A60002DE9F05F04460D4616461F46DDF828A016
:101A700006FB07FBD146E819401E83B2A019401EA1
:101A800081B2AAB2A0B2FFF741FE4FF0000805E014
:101A900039F8020BFFF7D3FD08F10108D845F7D359
:101AA000BDE8F09F20202020202020202020202082
:101AB00020202020202020200000000070477047B8
:101AC0007047754600F028F8AE4605006946534653
:101AD00020F00700854618B020B5FEF7BBFBBDE837
:101AE00020404FF000064FF000074FF000084FF085
:101AF000000B21F00701AC46ACE8C009ACE8C00916
:101B0000ACE8C009ACE8C0098D4670470446AFF3A5
:101B100000802046FEF789FB00487047A81500208A
:101B200000487047AC15002001491820ABBEFEE705
:101B300026000200704710B5FFF7F2FF4FF00001DA
:101B4000016010BDFFFFFFFFFFFFFFFFFFFFFFFF73
:101B5000FFFFFFFFFFFFFFFFFFFFFFFFFFFFFFFF95
:101B6000FFFFFFFFFFFFFFFFFFFFFFFFFFFFFFFF85
:101B7000FFFFFFFFFFFFFFFFFFFFFFFFFFFFFFFF75
:101B8000FFFFFFFFFFFFFFFFFFFFFFFFFFFFFFFF65
:101B9000FFFFFFFFFFFFDFFFDFFFBFFFFFFFFFFFD5
:101BA000FFFFFFFFFFFFFFFFFFF7FFE7FFE7FFE795
:101BB000FFE7FFEFFFF7FFFFFFFFFFFFFFFFFFFF65
:101BC000FFFFDFFFFFFFFFFFFFFFFFFFFFFFFFFF45
:101BD000FEFFFDFFFEFFFFFFFFFFFFFFFFFFFFFF19
:101BE000FFFFFFFFFFFFFFFFFFFFFFFFFFFFFFFF05
:101BF000FFFFFFFFFFFFFFFFFFFFFFFFFFFFFFFFF5
:101C0000FFFFFFFFFFFFFFFFFFFFFFFFFFFFFFFFE4
:101C1000FFFFFFFFFFFFFFFFFFFFFFFFFFFFFFFFD4
:101C2000FFFFFFFFFFFFFFFFFFFFFFFFFFFFFFFFC4
:101C3000FFFFFFFFFFFFFFFFFFFFFFFFFFFFFFFFB4
:101C4000FFFFFFFFFFFFFFFFFFFFFFFFFFFFFFFFA4
:101C5000FFFFFFFFDFFFDFFFDFFFFFFFFFFFFFF7FC
:101C6000FFF7FFF7FFF7F9BE3596D385B37DF38510
:101C70007696DBC7FEE7FEE7FFF7FFFFFEFFFFFFFD
:101C8000FFFFFFFFFFFFFFFFFFFFFFFFFFFFFFFF64
:101C9000FEFFFFFFFFFFFFFFFFFFFFFFFFFFFFFF55
:101CA000FFFFFFFFFFFFFFFFFFFFFFFFFFFFFFFF44
:101CB000FFFFFFFFFFFFFFFFFFFFFFFFFFFFFFFF34
:101CC000FFFFFFFFFFFFFFFFFFFFFFFFFFFFFFFF24
:101CD000FFFFFFFFFFFFFFFFFFFFFFFFFFFFFFFF14
:101CE000FFFFFFFFFFFFFFFFFFFFFFFFFFFFFFFF04
:101CF000FFFFFFFFFFFFFFFFFFFFFFFFFFFFFFFFF4
:101D0000FFFFFFFFFFFFFFFFFFFFFFFFFFFFFFFFE3
:101D1000FFFFFFFFFFFFFFFFFFFFFFF7FEEFFDDF0E
:101D2000969630652C444C446C3C4B2C2924E81B83
:101D3000AA246E3DB486FDCFFEE7FFF7FFFFFFFF4D
:101D4000FFFFFFFFFFFFFFFFDFFFDFFFFFFFFFFFE3
:101D5000FFFFFFFFFFFFFFFFFFFFFFFFFFFFFFFF93
:101D6000FFFFFFFFFFFFFFFFFFFFFFFFFFFFFFFF83
:101D7000FFFFFFFFFFFFFFFFFFFFFFFFFFFFFFFF73
:101D8000FFFFFFFFFFFFFFFFFFFFFFFFFFFFFFFF63
:101D9000FFFFFFFFFFFFFFFFFFFFFFFFFFFFFFFF53
:101DA000FFFFFFFFFFFFFFFFFFFFFFFFFFFFFFFF43
:101DB000FFFFFFFFFFFFFFFFFFFFFFFFFFFFFFFF33
:101DC000FFFFFFFFFFFFFFFFFFFFFFFFFFFFFFFF23
:101DD000FEFFFFFFFFFFFFF7FFF777AE317D927D3C
:101DE000F79EFDCFFDD7FDCFFAB7D8A7D47E8914D3
:101DF00069146A1C8B34B596FEDFFFF7FFFFFFFF07
:101E0000FFFFFFFFFFFFDFFFDFFFFFFFFFFFFFFF22
:101E1000FFFFFFFFFFFFFFFFFFFFFFFFFFFFFFFFD2
:101E2000FFFFFFFFFFFFFFFFFFFFFFFFFFFFFFFFC2
:101E3000FFFFFFFFFFFFFFFFFFFFFFFFFFFFFFFFB2
:101E4000FFFFFFFFFFFFFFFFFFFFFFFFFFFFFFFFA2
:101E5000FFFFFFFFFFFFFFFFFFFFFFFFFFFFFFFF92
:101E6000FFFFDFFFDFFFFFFFFFFFFFFFFFFFFFFFC2
:101E7000FFFFFFFFFFFFFFFFFFFFFFFFFFFFFFFF72
:101E8000FFFFFFFFFFFFFFFFFFFFFFFFFFFFFFFF62
:101E9000FEFFFFFFFFF7D59D37AEFEE7FFF7FEEF32
:101EA000FFF7FFF7FFF7FFF7FFEFFFE799B7906541
:101EB0004924891C89146E45FFE7FFF7FFFFFFFFE8
:101EC000FFFFFFFFFFFFFFFFFFFFFFFFFFFFFFFF22
:101ED000FFFFFFFFFFFFFFFFFFFFFFFFFFFFFFFF12
:101EE000FFFFFFFFFFFFFFFFFFFFFFFFFFFFFFFF02
:101EF000FFFFFFFFFFFFFFFFFFFFFFFFFFFFFFFFF2
:101F0000FFFFFFFFFFFFFFFFFFFFFFFFFFFFFFFFE1
:101F1000FFFFFFFFFFFFFFFFFFFFFFFFFFFFFFFFD1
:101F2000DFFFDFFFFFFFFFFFFFFFFFFFFFFFFFFF01
:101F3000FFFFFFFFFFFFFFFFFFFFFFFFFFFFFFFFB1
:101F4000FFFFFFFFFFFFFFFFFFFFFFFFFFFFFFFFA1
:101F5000FFFF9CDFBDDFFFF7FFF7FFFFFFFFFEEF97
:101F6000FFF7FFF7FFF7FFFFFFFFFFF7FEE73697EB
:101F7000CB2C890CA91499AFFEE7FFFFFFFFFFFFF1
:101F8000FFFFFFFFFFFFFFFFFFFFFFFFFFFFFFFF61
:101F9000FFFFFFFFFFFFFFFFFFFFFFFFFFFFFFFF51
:101FA000FFFFFFFFFFFFFFFFFFFFFFFFFFFFFFFF41
:101FB000FFFFFFFFFFFFFFFFFFFFFFFFFFFFFFFF31
:101FC000FFFFFFFFFFFFFFFFFFFFFFFFFFFFFFFF21
:101FD000FFFFFFFFFFFFFFFFFFFFFFFFFFFFDFFF31
:101FE000FFFFFFFFFFFFFFFFFFFFFFFFFFFFFFFF01
:101FF000FFFFFFFFFFFFFFFFFFFFFFFFFFFFFFFFF1
:10200000FFFFFFFFFFFFFFFFFFFFFFFFFFFFBEEF31
:102010003CDFFFFFFFFFFFFFFFFFFFEFFEDFFEDF05
:10202000FEE7FFEFFFF7FFF7FFFFFEF7FEE7FBC757
:10203000EC3C8914CB2C99BFFFF7FFFFFFFFFFFF9C
:10204000FFFFFFFFFFFFFFFFFFFFFFFFFFFFFFFFA0
:10205000FFFFFFFFFFFFFFFFFFFFFFFFFFFFFFFF90
:10206000FFFFFFFFFFFFFFFFFFFFFFFFFFFFFFFF80
:10207000FFFFFFFFFFFFBFFF9FFF7EFF7DFF7EFF94
:102080009EFFBEFFDFFFFFFFFFFFFFFFFFFFFFFF22
:10209000FFFFFFFF9EFF7EFF7DFF7DFF5DFF5DFF7A
:1020A0007DFF7DFF5DFF5DFF5DFF5DFF5DFF5DFF10
:1020B0005DFF5DFF5DFF5DFF7DFF7DFF5DFF5DFF00
:1020C0005DFF7EFFDFFFFFFFFFFFFFFFDEEFFFFF94
:1020D000FFFFFFF7FFEFFDD7D79E2E4DED44ED4CF0
:1020E0009065758EBBCFFEF7FFFFFFFFFFEFFBC7CD
:1020F000CC34880CAC44FCD7FFEFFFFFFFFFFFFFA1
:10210000DFFF9EFF7DFF7DFF7DFF5DFF5DFF5DFFCC
:102110007DFF7DFF5DFF5DFF5DFF5DFF5DFF5EFF9E
:102120005EFF5DFF5EFF7EFFBFFFDFFFDFFFFFFFA4
:10213000FFFFFFFF7DFF4CAB28C2E8D949D249BA67
:1021400079FE9EFFFFFFDFFFFFFFFFFFFFFFFFFFA7
:10215000FFFF6FE3A8C928DA28DA08D2E8D908DA3D
:1021600008DA08DA09D228D228D209DA09DA08DA34
:1021700008DA08DA08DA28D208D229DA08D2E8D14F
:1021800009DAB7FD9EFFDFFFFFFFFFFFFFFFFFF74D
:10219000FEE7B58EEC2C8914CA0CC90CCA14C90C04
:1021A000A914AA1CFCD7FFEFFFFFFFF7FFEF9AB7B8
:1021B0000A156814D05DFFEFFFFFFFFFFFFFBFFFB1
:1021C000D4FCC8C108D229DAE8D909DA09DA09DA6F
:1021D00009D229D208DA08DA08D209DA09DA09DAE2
:1021E00009DAE9D16BDA30F41CFFBEFFFFFFFFFF15
:1021F000FFFFBDFFD2ECA3B8A3E0C3D8A2B8AEEBFB
:102200009EFFFFFFFFFFFFFFFFFFFFFFDFFFBEFFA0
:10221000C4B8C4E0A2D8C3E0C4E0A4E0A3E0A3E053
:10222000C3E0C3E0C4E0C3E0A4E0A4E0C3E0C3E0D3
:10223000A3E0A3E0C4E0C3D8C4E0C3E0C3E0C4E0CB
:1022400045A996FDBEFFFFFFFFFFDEF7FEE7905DAD
:10225000691CE90C2A052A052905290529054905CE
:102260000905EC3CDBC7FFE7FFFFFFFFFFE7881432
:10227000E90C891C38AFFFF7FFFFFFFF9EFFACE2C0
:10228000A3D0C3D8A3D8A4E8A4E8A4E0A4E0A4E021
:10229000C4E0A4E0A3E0A3D8C4E083E0A4E8C3E0E2
:1022A000C4E0C4D0C3B8EBD27DFFFFFFFFFFFFFF48
:1022B000DEFF3CFFC8C9E5F0A4E8E5E087C9DBFE26
:1022C000BEFFFFFFFFFFFFFFFFFFDFFF5DFFA3C0BC
:1022D000E4F0E3E8E3E8C4F0A4E8C4F0C4F0C4F038
:1022E000C4F0C4F0C4F0C4F0C4E8E4E8E4E8C4F026
:1022F000C4F0C5E8C5E8C4E8C3E8C3E8E4E0C3C87F
:10230000ABD27EFFDFFFFFFFFFF7905D6914EA0CA1
:1023100009054A052A054A054A05490529054A05C8
:10232000A90CEC34FCC7FFEFFFF7FFEF0C3DE90C05
:10233000A80C2E55FEE7FFF7DEFFDBFE46C9C3E023
:10234000E3E8E3F0A4E8C4F0C4F0C4F0C4F0C5F0DE
:10235000C4F0C4E8E4E8C4E8C5F0C4F0C2E8E3E0CF
:10236000E4E0C4E0C4B897FDFFFFFFF7FFFFDEFF26
:102370009EFFD4FCC5E0C5F0C5F0A4C0B3F49EFF39
:10238000FFFFDFFFFFFFFFFFBEFF5AFE04D9C3E8D8
:10239000E3F004E983D0C4D0C4D0E4C8C4D0C4D02E
:1023A000C4D0C4D0C4C8C4C8E4C8E4C8C4D0C4D06D
:1023B000C5D0A4D0C4D8C4E8E4F0E3E8C4E0C8C9F8
:1023C0001DFFFFFFFFFFFEEFAA14EA0C2A054A05D6
:1023D00009050905290549054A0509050A052905CB
:1023E000880C2E4DFEDFFFF7FFF77486A90C0A1547
:1023F0004A24B9B7FEF7DFFFD3DCE4A8E4D0C3C8B2
:10240000C3C8E5D0C4D0C4D0C4D0C4D0C4D0C4D014
:10241000C4D0C4C8C4C8C4D0A4D8E3E8E3E8E4E89E
:10242000E5F883C8B3ECFFFFFFFFFFFFFFFFBEFF30
:102430001CFFC4D0C5F0A4E8E5D009C21CFFFFFF13
:10244000FFFFFFFFFFFF9EFFAFF304E1E3E8E5F0CE
:10245000E5D0ACDA6ED34DD34DD34DD34DD32DD380
:102460004DD34DD34DD34DD34DD32DD32DD32EDBC3
:102470000DE329E2C4E0C4F0C3F0E4E8C8D13EFFB4
:10248000FFFFFFF7FCCFE904E9042A050905290548
:102490004905490549054A0529052A05490D090D3A
:1024A00089143697FEEFFFFFFCCFAB1CEA0CAA1491
:1024B0005376FEEFBFFFF3CC2CC34DDB4CD34DDB8B
:1024C0000DD32DD34DD34DD32ED32ED32DDB2DDBDA
:1024D0004EDB4EDB0DDBCCEAC4E0E4E8E4E883E865
:1024E000C4C8F4F4FFFFFFFFFFFFFFFFDFFF9EFF05
:1024F000E5C0C5E0E5E805E1C4C014FDFFFFFFFF4E
:10250000DFFFDFFFDBFE87C9E4E8E4E8A4D08BEA65
:10251000FDFE3DFF1CFF3CFF3CFF3CFF3DFF3DFF40
:102520001DFF1DFF3CFF3CFF1CFF1CFFFDFEDCFEF2
:10253000ECFAA4D8A4F0C4F0A3D0ECE27FFFFFFF34
:10254000FFEF747E4A054A0D29052A054A0DC91474
:10255000C90CC90CA90CA90CCA14A914A914691492
:102560000D4DFEEFDFFFFFE74E3DEA0CC90C6E4557
:10257000FFE7BEFF7DFF3CFF1CFF1CFF1CFF1DFF94
:102580001DFF3DFF3DFF1DFF1DFF1CFF1CFF1CFF2E
:10259000FCFEFDFEF9FDE5E8C4E005E905E905C13D
:1025A000F8FDFFFFFFFFFFFFFFFFFFFFDFFF29D267
:1025B000E4D8C4E004E9A3D86AE2DFFFFFFFDFFF4D
:1025C0009DFF72ECA4C0A3E804E125B976FD1DFFD0
:1025D00056FD14FD14FD14FD14FD15FD14FD15FD2F
:1025E00015FD14FD34FD14FD14FDF4FC8FFB25D105
:1025F000E4E8A3E8C4E8E4B055FD9FFFFFF7FFDF80
:102600004E4D2905080549052A05C9042F4D2F4DB2
:102610004F4D2E4D4F4D2E450F4D0E4D0E4DCE5C58
:10262000DDE7FFFFFEE75266A90CE90CCB24FEDFD5
:102630009AFE55FD15FDF4FC15FDF4FC34FD34FD4A
:1026400034FD34FD14FD14FD14FD34FD34FD14FD82
:1026500093FC09EAE4E8A4E8E5E8C3D049D29DFF89
:10266000FFFFFFFFFFFFDFFFFFFFFFFFF4FCE4B80A
:1026700004D9E4E8C4E8E4C8BFFFFFFFDEFF1CFFA5
:1026800008C2E5D8C4F0E4D0EBD23CFFF4FC05A1CD
:10269000E4C0E4C0E4C004C105C104C1E5C0E5C0B4
:1026A00004C104C104C1E4C0E4C8C4D005E1E4E845
:1026B000E4E8E4E84DD37EFFBFFFFFF7FDCFCC3465
:1026C0002905490529050905CB1CFFDFFFDFFFDFD1
:1026D000FEDFFEDFFEDFFFE7FFE7FFDFFEE7FFF7DE
:1026E000FFFFFFEFB376890C290DCA1CDBCF6DD33A
:1026F000A3A805C1E5C0E5C8E5C004B904B904B99B
:1027000004C104C104C104C104B904B904C1A4C80A
:10271000C4D8C4E8E4E8C4D804B996FDBEFFFFFFFE
:10272000FFFFFFFFDFFFFFFFFFFF1CFF4AC205D1D6
:10273000C4E8C4F0C3C87DFFDEFFBDFFB2FCC4B86F
:1027400005E1C4E804C9F7FD5DFF49DAE4D006E914
:10275000E4E0E4E0E4D805E105E105E105E1E4E0D9
:10276000E5E004E104E104E1E4E025E9E4E8E4E88B
:10277000C3D03CFFBFFFFFFFFFF7FCC78B244A0518
:1027800029050A0DAA14F165FFF7FFF7FFF7FFF718
:10279000FFF7FFF7FFF7FFF7FFF7FFF7FFFFFFFF79
:1027A000FEEFD58E89142905C91CBACFA6C104D95C
:1027B00005E105E9C5E0E5E0E4E004E104E104D970
:1027C00004D904E105E105D925D9E4E0E5E8C5F03F
:1027D000C5F0C4E866D197FD7EFFDFFFFFFFFFFF76
:1027E000FFFFFFFFFFFFFFFFFFFF5EFF2AD2C4D8FE
:1027F00005E9C4E011FC5DFF54FD25C9A3E0E4E850
:1028000006C157FD1CFF0CD3E4D0C4E8C5D805C1F0
:1028100066B945B186B966C165B966B946C146C1F2
:1028200066C166B945C905D9E5E0E5E8E4E8E5E84B
:10283000FCFEDFFFFFFFFFF7FEDFCC3C29054A056A
:102840000A05304EFDBFFCC7FDCFFCC7FCCFFCCF57
:10285000FCCFFCC7FDC7FDCFFDCFFDCFFDCFFCBF3B
:10286000D36EA90C2905AA249CFFE4D0C4E8E5E8AE
:1028700005D926C146B926B946B966B966B966B959
:1028800046C146C166B966B945B905C926E105F133
:10289000C3E8A3C052E49FFFFFFFFFFFFFFFFFFF5E
:1028A000FFF7FFFFFFFFFFFFBFFFF5FCE4C0E4E021
:1028B000E4E887D9BBFECBD2C4D0E5F0E4E8EEDA99
:1028C000DDFE96FD25B905E1E5F025D915FD18FEDB
:1028D00018FEF8FD18FEF8FD18FEF8FDD8FDF8FD0D
:1028E000F8FDF8FD6BFAA5E0C5E8A4E8A4E89BFEB6
:1028F000FFFFFFFFFFF7FEE7D16D2A0509050A0577
:102900000B1DEC2CCC2CCC2CCC2CCB34AB34CB2CCA
:10291000AC34EC3CCD34CC34CD3CAC340C2D0A1D65
:102920000A0DE9042D4578FEE4D805F1C4E0E9F18B
:10293000D8FDF8FDF9FDF9FD18FE18FE18FED8FDCA
:10294000F9FD19FE18FEF8FDF4FCC4D0C4E8C3F08C
:10295000C4D0AFD39EFFFFFFFFFFFFFFDFFFFFFFEE
:10296000FFFFFFFFFFFFBEFF5DFF4ACAE5D8C4E8D7
:10297000E5D8CDFA47D9C5E8A5F0C4F0D8FD3EFFAB
:102980004DF3A3C8E4E0C4E8ABFA9AFE7AFEBAFEBF
:10299000BBFE7AFEBBFE7AFE7BFE9CFE9BFEBCFE6F
:1029A000F4FC27E1C5E8A4E8E5F0E5E8DBFEDFFF9D
:1029B000FFFFFFF7FFF738AF2A0D2A052A050A0D9A
:1029C000C904EB0CCA04EA0CCA0CEA14CA0CC914F8
:1029D000EA14C90CC90CEA14EA140805090D0A0D19
:1029E000C90CF17DB1EC05E1C3E0A3D0AFFB79FEEA
:1029F0009AFE7AFE9AFE9AFE9AFE9AFE7AFE9AFE57
:102A00009AFE9AFE18FEACFAA4D8A3E8C3F0C3C895
:102A100051E4BFFFDFFFFFFFDFFFFFFFFFFFFFFF0F
:102A2000FFFFFFFFDFFF9EFF55FDE4C0E4E8C5E8C0
:102A300084D8C5E8C5F0C4E883D05DFF7AFE25C11F
:102A4000C3E0E4E8C4E845E186C1C7B9A7B1C7B9A6
:102A5000A7B9A7B987B9A8C1A8B967B1A8B904C16E
:102A6000C4D8E5F0C4E8E4E0E4D87DFFFFFFFFFF51
:102A7000FFFFFFFFFEE7AA0CE9042A0509054A0546
:102A80004A052A054A052A052A052A0D2A0DE90CB8
:102A9000E90CCA148914A90C2905290DE90C69143B
:102AA00073AECAD2E4E8E4E804E145D986C9A6B920
:102AB000A7B9A7B9A7B9A7B9A7B9A7C1C7B1C7B1DE
:102AC00086B966C9A4D0E4E8C4F0E4F0C3B855FD03
:102AD000BFFFFFFFFFFFFFFFFFFFFFFFFFFFFFFF46
:102AE000FFFFFFFFDEFF7DFF49DAC3D004E904E901
:102AF000C3E0E4E805E126C11CFFCFEBA3C8E4F086
:102B0000C4E8E4F0C4E0E5E0E5D8E5D8E5D8E5D0F0
:102B1000E4D804D904D104D105D904D904E1E4F0FE
:102B2000A3E8E4E824E1A3B8BEFFFFFFFFFFFFFF37
:102B3000FFFFFFF76B2CEB14090529052905290573
:102B400049052A052A050A052A050905CA14F15D61
:102B50003476558654764C25C904EA14CB4434CED9
:102B600085B9E4E8C3E8E4E8E4E0E4D804D904D9AA
:102B7000E4D8E4D8E4D8E4D8E5D805D105D105D91E
:102B8000E4D8E4E8E4F0E4E0A3D8A7C91CFFDFFF41
:102B9000DFFFFFFFFFFFFFFFFFFFFFFFFFFFFFFF65
:102BA000FFFFFFFFBEFF55FD03B9E4E0C3D824E9F2
:102BB00004E1E4C02DD379FEA6B905D9C4E8E5E85F
:102BC000C4E004E1C4E805E9C4E0E5E005E9E4E8BF
:102BD000E4E804E1E4E0E4E8E4E8E4E8C4E005E98A
:102BE00005D9C3B869C2BEFFFFFFFFFFFFFFFFFFAC
:102BF000FFFF59AF8B24CA0C2A0D29054905490549
:102C000049052A052A050A0D8914726EFED7FEE7CA
:102C1000FFE7FFDFAA14EA0C891CF18DD0CC03B9C1
:102C2000E4E805E905E9C4E005E9E5E0E4E0E4E815
:102C3000E4E8E4E8E4E0E4E0E5E0E5E0E5E0E4E061
:102C4000E4E805E9E5C804B9F3FCBEFFFFFFFFFFB8
:102C5000FFFFFFFFFFFFFFFFFFFFFFFFFFFFFFFF84
:102C6000FFFFDFFF7DFFAAC284C8C4D0A3C883C80A
:102C700004B138FEAEDBE3A8C3C0A3C8A4D0A4C887
:102C8000C3C8C3C8A3D0C3C8C3C8A3C8A3D0A3C85C
:102C9000C4C8C3C8C3C8C3C8A3C8A4D084C005B926
:102CA000CBC2FAFEFFFFFFFFFFFFFFFFFFFFFFFFAB
:102CB000FFEF7AB7EE448A14E90C49054905290566
:102CC0002905E90CA914B596FEE7FFF7FFF7FFEF1A
:102CD000FEDFCA0C0A0DAA3418EF279AE4B0C4C864
:102CE000A4C8A4C8A4D0A4D0A4D0A3D0C3C8C3C827
:102CF000C3C8C3C8C3C8C3C8C3C8A3C8A3C8C4C8BB
:102D0000C4C8A7B9B2EC9DFFDFFFFFFFFFFFFFFFC5
:102D1000FFFFFFFFFFFFFFFFFFFFFFFFFFFFFFFFC3
:102D2000FFFFBEFF38FED0FBAFFBF0FB6EF3B3F44A
:102D3000BEFF91E4CEEBF0FBD0FBB0FBD0FBCFFBB2
:102D4000CFFBCFFBCFFBCFF3CFFBAFFBB0FBD0F381
:102D5000CFF3CFF3CFF3CFFBB0FB32FCB7FD5DFF7A
:102D6000DDFFFFFFFFFFFFFF7DEFBEEFFFF7FFF788
:102D7000FFF7FDDFB5866E45A91489148914CA24AE
:102D8000CB2C326EFEEFFEF7FFFFFEEFFEE7127672
:102D90000B156914D4961AFF10DCF0EBCFF3AFFBE0
:102DA000AFFBAFFBAFFBAFFBAFFBCFFBCFF3CFF383
:102DB000CFF3CFFBAFFBAFFBCFFBF0FBAFF3B0F339
:102DC0007AFEBDFFDEFFFFFFFFFFFFFFFFFFFFFFFC
:102DD000FFFFFFFFFFFFFFFFFFFFFFFFFFFFFFFF03
:102DE000FFFFDFFF9EFF9EFF9DFFBEFFBFFFDFFFD8
:102DF000BEFFBEFF7DFF9EFF9FFF9FFF9EFF9EFFCA
:102E00009EFF9EFF9EFF9DFF9EFF9FFF9FFF9EFFD9
:102E1000BEFFBEFFBEFF9EFF7EFF5DFFBFFFFFFF49
:102E2000DFFFFFFFFFFFFEF73BCFBDDFFFFFFFFF31
:102E3000FFF7FEEFFEE738AFF7A6F8AE9ABFFEE762
:102E4000FFE7FFFFFFFFFEF7FEE7937E6914690CC3
:102E50007165FEEFFEFF9EFF9EFF9EFF9EFF9EFFA1
:102E60009EFF9EFF9EFF9EFF9EFF9EFF9EFF9EFF7A
:102E70009EFF9EFF9DFF9DFFBDFFBDFFBEFF9EFF0E
:102E8000DFFFFFFFFFFFFFFFFFFFFFFFFFFFFFFF72
:102E9000FFFFFFFFFFFFFFFFFFFFFFFFFFFFFFFF42
:102EA000FFFFFEFFFFFFFFFFFFFFFFFFFFFFFFFF33
:102EB000FFFFDFFFFFFFFFFFFFFFFFFFFFFFFFFF42
:102EC000FFFFFFFFFFFFFFFFFFFFFFFFFFFFFFFF12
:102ED000FFFFFFFFFFFFFFFFFFFFDFFFFFFFDFFF42
:102EE000FFFFDFFFFFFFFEE737AEFFF7FFF7FFF75C
:102EF000FFFFFFFFFFF7FFF7FFF7FFFFFFFFFFFFFA
:102F0000FFF7FEE7FDDF11766914CA14704DFEDF8E
:102F1000FFF7FFFFFFFFFFFFFFFFFFFFFFFFFFFFC9
:102F2000FFFFFFFFFFFFFFFFFFFFFFFFFFFFFFFFB1
:102F3000FFFFFFFFFEFFFFFFFFFFFFFFFFFFFFFFA2
:102F4000FFFFFFFFFFFFFFFFFFFFFFFFFFFFFFFF91
:102F5000FFFFFFFFFFFFFFFFFFFFDFFFDFFFFFFFC1
:102F6000FFFFFFFFFFFFDFFFFFFFDFFFFFFFFFFFB1
:102F7000FFFFFFFFDFFFFFFFFFFFFFFFFFFFFFFF81
:102F8000FFFFFFFFFFFFFFFFFFFFFFFFFFFFFFFF51
:102F9000FFFFFFFFFFFFFFFFFFFFFFFFFFFFFFFF41
:102FA000FFFFFFFFFFFFFFF7359EFDD7FFE7FFF7AE
:102FB000FFFFFFFFFFFFFFFFFFFFFFFFFFF7FEDF4A
:102FC00098A74D456814A90C8A1CFEDFFFF7FFFF88
:102FD000FFFFFFFFFFFFFFFFFFFFFFFFFFFFFFFF01
:102FE000FFFFFFFFFFFFFFFFFFFFFFFFFFFFFFFFF1
:102FF000FFFFFFFFFFFFFFFFFFFFDFFFDFFFFFFF21
:10300000FFFFFFFFFFFFFFFFFFFFFFFFFFFFFFFFD0
:10301000FFFFFFFFFFFFFFFFFFFFFFFFFFFFFFFFC0
:10302000FFFFDFFFFFFFFFFFFFFFFFFFDFFFFFFFF0
:10303000FFFFFFFFFFFFFFFFFFFFFFFFFFFFFFFFA0
:10304000FFFFFFFFFFFFFFFFFFFFFFFFFFFFFFFF90
:10305000FFFFFFFFFFFFFFFFFFFFDFFFFFFFFFFFA0
:10306000FFFFFFFFFEF797A6F06CB4859CD7FFEF3C
:10307000FFEFFFEFFFEFFFEFFEE7FDD78F5D6A2465
:10308000891C891CAA24B47EFFEFFFFFFFFFFFFF0E
:10309000FFFFFFFFFFFFFFFFFFFFFFFFFFFFFFFF40
:1030A000FFFFFFFFFFFFFFFFFFFFFFFFFFFFFFFF30
:1030B000FFFFFFFFFFFFFFFFFFFFFFFFFFFFFFFF20
:1030C000FFFFFFFFFFFFFFFFFFFFFFFFFFFFFFFF10
:1030D000FFFFFFFFFFFFFFFFFFFFFFFFFFFFFFFF00
:1030E000FFFFFFFFFFFFFFFFFFFFFFFFFFFFDFFF10
:1030F000FFFFFFFFFFFFFFFFFFFFFFFFFFFFFFFFE0
:10310000FFFFFFFFFFFFFFFFFFFFFFFFFFFFFFFFCF
:10311000FFFFFFFFFFFFFFFFFFFFFFFFFFFFFFFFBF
:10312000FFFFFFFFFFF7DDD7F4854D4CAD4C737605
:10313000B37693765166AE4DCB24691469246A2C1C
:10314000906DDBCFFEEFFFFFFFFFFFFFFFFFFFFFF5
:10315000FFFFFFFFFFFFFFFFFFFFFFFFFFFFFFFF7F
:10316000FFFFFFFFFFFFFFFFFFFFFFFFFFFFFFFF6F
:10317000FFFFFFFFFFFFFFFFFFFFFFFFFFFFFFFF5F
:10318000FFFFFFFFFFFFFFFFFFFFFFFFFFFFFFFF4F
:10319000FFFFFFFFFFFFFFFFDFFFFEFFFFFFDFFF80
:1031A000FFFFFFFFFFFFFFFFFFFFFFFFFFFFFFFF2F
:1031B000FFFFFFFFFFFFFFFFFFFFFFFFFFFFFFFF1F
:1031C000FFFFFFFFFFFFFFFFFFFFFFFFFFFFFFFF0F
:1031D000FFFFFFFFFFFFFFFFFFFFFFFFFFFFFFFFFF
:1031E000FFFFFFFFFFF7FEE7FDCFF6968B2C4A2C83
:1031F000292C4924491C8A1C8F4DB486FBC7FEEF3D
:10320000FFFFFFFFFFFFFFFFFFFFFFFFFFFFFFFFCE
:10321000FFFFFFFFFFFFFFFFFFFFFFFFFFFFFFFFBE
:10322000FFFFFFFFFFFFFFFFFFFFFFFFFFFFFFFFAE
:10323000FFFFFFFFFFFFFFFFFFFFFFFFFFFFFFFF9E
:10324000FFFFFFFFFFFFFFFFFFFFFFFFFFFFFFFF8E
:10325000FFFFFFFFFFFFFFFFFFFFFFFFFFFFFFFF7E
:10326000FFFFFFFFFFFFFFFFFFFFFFFFFFFFFFFF6E
:10327000FFFFFFFFFFFFFFFFFFFFFFFFFFFFFFFF5E
:10328000FFFFFFFFFFFFFFFFFFFFFFFFFFFFFFFF4E
:10329000FFFFFFFFFFFFFFFFFFFFFFFFFFFFFFFF3E
:1032A000FFFFFFFFFFF7FFF7FFEFFEE7BCD75AC7AF
:1032B0005AC75AC7BCD7FEEFFFEFFFF7FFFFFFFF6C
:1032C000FFFFFFFFFFFFFFFFFFFFFFFFFFFFFFFF0E
:1032D000FFFFFFFFFFFFFFFFFFFFFFFFFFFFFFFFFE
:1032E000FFFFFFFFFFFFFFFFFFFFFFFFFFFFFFFFEE
:1032F000FFFFFFFFFFFFFFFFFFFFFFFFFFFFFFFFDE
:10330000FFFFFFFFFFFFFFFFFFFFFFFFFFFFFFFFCD
:10331000FFFFFFFFFFFFFFFFFFFFFFFFFFFFFFFFBD
:10332000FFFFFFFFFFFFFFFFFFFFFFFFFFFFFFFFAD
:10333000FFFFFFFFFFFFFFFFFFFFFFFFFFFFFFFF9D
:10334000FFFFFFFFFFFFFFFFFFFFFFFFFFFFFFFF8D
:10335000FFFFFFFFFFFFFFFFFFFFFFFFFFFFFFFF7D
:10336000FFFFFFFFFFFFFFFFFFFFFFFFFFFFFFFF6D
:10337000FFFFDFFFFFFFFFFFFFFFFFFFFFFFFFFF7D
:10338000FFFFFFFFFFFFFFFFFFFFFFFFFFFFFFFF4D
:10339000FFFFFFFFFFFFFFFFFFFFFFFFFFFFFFFF3D
:1033A000FFFFFFFFFFFFFFFFFFFFFFFFFFFFFFFF2D
:1033B000FFFFFFFFFFFFFFFFFFFFFFFFFFFFFFFF1D
:1033C000FFFFFFFFFFFFFFFFFFFFFFFFFFFFFFFF0D
:1033D000FFFFFFFFFFFFFFFFFFFFFFFFFFFFFFFFFD
:1033E000FFFFFFFFFFFFFFFFFFFFFFFFFFFFFFFFED
:1033F000FFFFFFFFFFFFFFFFFFFFFFFFFFFFFFFFDD
:10340000FFFFFFFFFFFFFFFFFFFFFFFFFFFFFFFFCC
:10341000FFFFFFFFFFFFFFFFFFFFFFFFFFFFFFFFBC
:10342000FFFFFFFFFFFFFFFFFFFFFFFFFFFFFFFFAC
:10343000FFFFFFFFFFFFFFFFFFFFFFFFFFFFFFFF9C
:10344000FFFFFFFFFFFFFFFFFFFFFFFFFFFFFFFF8C
:10345000FFFFFFFFFFFFFFFFFFFFFFFFFFFFFFFF7C
:10346000FFFFFFFFFFFFFFFFFFFFFFFFFFFFFFFF6C
:10347000FFFFFFFFFFFFFFFFFFFFFFFFFFFFFFFF5C
:10348000FFFFFFFFFFFFFFFFFFFFFFFFFFFFFFFF4C
:10349000FFFFFFFFFFFFFFFFFFFFFFFFFFFFFFFF3C
:1034A000FFFFFFFFFFFFFFFFFFFFFFFFFFFFFFFF2C
:1034B000FFFFFFFFFFFFFFFFFFFFFFFFFFFFFFFF1C
:1034C000FFFFFFFFFFFFFFFFFFFFFFFFFFFFFFFF0C
:1034D000FFFFFFFFFFFFFFFFFFFFFFFFFFFFFFFFFC
:1034E000FFFFFFFFFFFFFFFFFFFFFFFFFFFFFFFFEC
:1034F000FFFFFFFFFFFFFFFFFFFFFFFFFFFFFFFFDC
:10350000FFFFFFFFFFFFFFFFFFFFFFFFFFFFFFFFCB
:10351000FFFFFFFFFFFFFFFFFFFFFFFFFFFFFFFFBB
:10352000FFFFFFFFFFFFFFFFFFFFFFFFFFFFFFFFAB
:10353000FFFFFFFFFFFFFFFFFFFFFFFFFFFF000099
:103540006035000800000020481500008C010008CC
:103550000C3D000848150020C0060000F0010008DE
:1035600012000120050102030404100A06070809DD
:1035700002040608201421040113016004A24A0475
:103580000B6134022F00010316800102611EE177F6
:1035900092CC02012A6A23600C02200F300630060A
:1035A000FE1FFE1F3006380718030A2007180318ED
:1035B000038C01023172201700E003F80F9C0E8C7F
:1035C0001C8C188C009800F801E007800E800E100B
:1035D0000B189C18B80CF00FE0038026A15A1009B4
:1035E0000E181B0C110C11060210110311039B0184
:1035F0008E01C038C06C60446044300260071844DB
:10360000186C0C38BE1005E001F0037A101406188F
:10361000063003F001F000F8009C310E33061E0660
:103620001C02E0063FFC73F021B8920C020121E776
:10363000100B0200038001C000C0006002D2300203
:103640002114211C155E12032A35DE211235701259
:103650000302D20602111425A2214EE908214810C6
:1036600008D806F807E00130D2052AEAC405FC3F75
:10367000FC3FE8092C30120002021B806C0006336C
:10368000E007E0070001253AF57F750C155C351061
:1036900045624564D17AE00A03F007380E180C0C35
:1036A0001802D409180C380EF007E003B0214C0CB6
:1036B000071901F0019801880803A16043F80F5E23
:1036C000220002219C35F025ECD0071800FC1FFCDD
:1036D0001F90100701F807180E0C0121C81805C02B
:1036E00003C00751113C41920210F8904C0B0C00A2
:1036F0000E000F000F800DC03003116B270C0CB2B1
:1037000009148513F80F9031893009EC03FC071C6C
:103710000E001C98115E0005101C0C180E6020098C
:10372000C007F00F381C1818325409CC03EC0F3CBA
:103730000E1C1C2006121C2031D24582357C16C07E
:103740007A3AE0C85A70DE0514802153840738069F
:10375000F007F0078CE005380CF80F604130521C80
:103760002430091C1C381EF81BE019D1130C1CC096
:103770000B1BF0018A012114011F30091ACE1C0510
:1037800010001C80720416F8DC1AF85C17800F60B9
:103790000A1810F8C3F81F080D1E140518070800B2
:1037A0003800F00114121F61161F9C130138140910
:1037B0001770796E6D2603FD2E033D7C03400C18B7
:1037C000180420C229224A11440902EC0C221113C8
:1037D000E20C024004201818980315D4200403C0FA
:1037E0000602396E2218022C07F83FF83F1C70AF12
:1037F000052119D9106C0503FC0F0C5E0310040C95
:10380000FC070E1A18A541021E180003FA0770BC27
:103810000A1F38381C300C700660DD04E008600CAC
:10382000701C30F01F903C08FE03FE0F060E06A130
:1038300005B1022DB305E8050EFE0FFEA01DCC0458
:103840008DA20529AEADB0053D3803C5A211DC4DF2
:10385000BB032D27038005F81FF81F0E4DD303DD92
:10386000CA043C0C0FF83F3C780E6006E007C081AC
:103870000411A11DC5031533DC090EC03CF0F83F4F
:10388000E00FBF03A23002319EB1120F260C308030
:10389000070D15A005021406022531DC063807F0D5
:1038A00003E0B004353A10140C060606038601C680
:1038B0000066007600DE008E01060312360C64DD21
:1038C0004105021B18022530CD210320050EE01E04
:1038D000F0024336D8022366CC0252C601E40586C4
:1038E000C386C32010041C303C02126C0212CC02AE
:1038F00010058C310C3302123602123C02E63820DD
:103900001C05E007F81F9904193EA303C002F8083C
:1039100006600E701C38F8401BFC0F02CA38920E6D
:10392000190CC407916082E05E140907E006630E7B
:103930003F1C3CE0CEF79106198258041F06389CC4
:103940001E38C00876074C49B20E106030065DDEA6
:10395000041D9B051BF80330331E00401C050E3070
:103960001C1C1005ED000308042A7FFE7F10E95E91
:10397000A97E0710181820430360BC6D14072D168C
:10398000072D9409140570076003631DE005E130FD
:1039900023C3610283663302236C1B02CC092C1AF9
:1039A0003C1E380E380E31051C090FE00C70183023
:1039B00030183F043C040EC0075E04140503E00603
:1039C00070F71D8107D006300E6007E0602D790486
:1039D0004C08301C383818300C65030D1C80075C0F
:1039E00005FC7FFC7F6D07DD7C072D2708253EED5C
:1039F00010082FE003AE06011E0221282DA60A6D35
:103A0000A6094DA8091D64096D0E0B7E03A009F1DE
:103A1000600221000261601D82071D4407256C3F82
:103A20006003D704291901390112FF010D39AE0ACB
:103A30009D4A081805F003F807AA2C070C000FF0A0
:103A40000FF8B1081F0C1C5C080F16F01820041E9C
:103A5000D8A80B1E38370881012DE0070F17D803AF
:103A6000DA091D9A096F300E39092DA3081E30900E
:103A700009EEC00009711F2805C01BF01F368160C8
:103A8000000719301CF01FC01B601E0F83066E1844
:103A9000D4051952EC051CF00FC0F00644040FC009
:103AA0000FDA2D9C0855E4B1020D17D40A1E0DFA49
:103AB000093DCA0961011D600924050FE00D002AB6
:103AC0006E06AA0895204F07F86A09D1010D16F075
:103AD0000A0215C002012E3041DEEC04F80078BE67
:103AE0000C1C050C0C060C6A0D100DCC006C00FCB7
:103AF000009C018C030C03120E100C560C011C02CE
:103B00000D169009E0097C3CFF7EC7E383C1020DDE
:103B100016BF0E062398200510E099101D0E0E0A00
:103B200017C0700916A00D16EA070917700D151BAE
:103B3000081EB06E07FE70E20D0E1830140D1E0345
:103B40007A0E1D1A0B1DF2093D060C0D15900C1D69
:103B5000020F0919A00F170780EA0D09106A123821
:103B6000C01D4C0B0D15DB0A4DFE053E18920F1DB6
:103B7000B7060E140300068DF80F3008C141C1418D
:103B8000C3616301323601321C010D16F00F3E1C79
:103B9000F70952605A1D5E061D75061E38E10B01BD
:103BA00017C01D36061D38062E1828102FE00C945D
:103BB0000A2D3E064DF00D1DA20D1D700C0D159A1F
:103BC0000C0D1B800D8D300B8D320E2DE205BA4091
:103BD000D63D900F0D259009CD22119E6024069DA3
:103BE000C60FB3030048FEC0A80E5D740500075160
:103BF00010F81F080F0001600DC003300C081004FE
:103C0000200420024002210E0C05120810300C3452
:103C1000032D3E052FF81F1A102D82084102210E98
:103C20000F18F81F64031EE04C0EA9700F1CF00F54
:103C3000F60F21302D9E056102011E30ADBC103AF9
:103C4000C04021660D10840A011430A16E0D10A829
:103C50000D1D24063D42041DE30C0E20030411A19A
:103C6000B20122307D6C121D581010048C018602A6
:103C7000128C0A00051EF001E001301006F801FC6C
:103C800001FE0212FC0A011E30100B8007800F801B
:103C900019803180610212310A00041F0F80073041
:103CA00010061F803F807F02123F0A011130180565
:103CB000C001200233B00501300608012116E102DF
:103CC0004DCE082D62091D4211A00407D80D027DBA
:103CD000F60391020112602304105932401643107A
:103CE000041211026C042004402E09C1604C07CC60
:103CF00019C631C26142091F700680084D3A101D75
:0C3D000069044D0E0903000000000000E3
:04000005080001519D
:00000001FF
